:020000040001F9
:10B00000102A0020D5B00100EFB00100F1B001001E
:10B010000000000000000000000000000000000030
:10B02000000000000000000000000000F3B001007C
:10B030000000000000000000F5B00100F7B00100C2
:10B0400035B30100F9B0010071B40100F9B001009D
:10B05000F9B001000000000079B10100F9B0010071
:10B06000F9B00100F9B00100F9B00100F9B0010038
:10B07000F9B00100F9B00100F9B00100F9B0010028
:10B08000F9B0010089B30100F9B00100F9B0010085
:10B09000A9B30100F9B00100B1B30100F9B001009A
:10B0A000F9B00100F9B0010000000000000000004C
:10B0B0000000000000000000000000000000000090
:10B0C0000348854600F046F8004800471DC30100CC
:10B0D000102A00200321094802680A430260084838
:10B0E00002680A4302600748804707480047FEE7B6
:10B0F000FEE7FEE7FEE7FEE7FEE70000240500406E
:10B1000054050040D1B30100C1B0010003460B4318
:10B110009B0703D009E008C9121F08C0042AFAD20D
:10B1200003E00B780370401C491C521EF9D2704793
:10B13000D2B201E00270401C491EFBD270470022CF
:10B14000F6E710B513460A4604461946FFF7F0FF26
:10B15000204610BD064C0125064E05E0E36807CCED
:10B160002B430C3C98471034B442F7D3FFF7ACFFA5
:10B17000F0D1010010D20100F0B50024FF268BB001
:10B180000136012527460694304601F009FC0028C7
:10B1900007D054484068284203D0304601F0F8FBFD
:10B1A0002C43361D6D007F1CB6B2042FECD3FF2557
:10B1B0007D35284601F0F4FB002809D0284601F02F
:10B1C000E7FB6807044306AA0121002001F0CCFB3D
:10B1D000454D200714D00127002627420CD04348B4
:10B1E000B200111808690969C004C00E8903AA5881
:10B1F000890F002A00D090477F00761C042EECD3E4
:10B20000002C6DDA00200890401E63E028194030C1
:10B210000778B906890E009100214156491C49D092
:10B2200009A9009801F0B9F9002843D0B8090190A4
:10B23000009800F099FD80002F580198002F02D04F
:10B24000032802D00DE0032834D1009808ABC208CF
:10B2500041079446985C490F01228A401043624698
:10B260009854009805210907800040180721090219
:10B270004018006806A98003800F0290009801F032
:10B280008CF90028029802D0022802D012E003288C
:10B2900010D10198032808D1029802281ED002215B
:10B2A000009801F043FB761CF6B2002F02D0019902
:10B2B0000098B847641C042CA8D3002E10D06A460E
:10B2C0000121002001F050FB06990098884207D028
:10B2D0000690089800263446099097E70321DFE797
:10B2E0000BB0F0BD006300408C21002000650040E1
:10B2F0008307FF22DB0E9A408907090E9940002838
:10B300000BDA0007000F0838830808489B0018185C
:10B31000C36993430B43C3617047830804489B0090
:10B320001B181868904308431860704700ED00E050
:10B3300000E400E0F8B5FF20013001F036F9002408
:10B3400001250E4E0E4F002807D00E480460012044
:10B35000B0607D70002000F00FFDFF20053001F08F
:10B3600024F9002808D00748001D04600220B060BE
:10B37000BD70012000F000FDF8BD0000000300409A
:10B38000782100200001004010B506490020086027
:10B3900048608860C860034940390860486001F02F
:10B3A00063FD10BD4011014010B501F0CFFC10BD90
:10B3B00010B506484068002805D08047002801D015
:10B3C00000F0D2F910BD00F033FE10BD482000207F
:10B3D00010B500F07BFE002805D01F491D484860CD
:10B3E000C8131E4988611E48018CC9B201290BD1BE
:10B3F000828C120708D1028D1206120F042A03D183
:10B40000828D1206120F0AD0012921D1818C0907E1
:10B410001ED1018D0906090F0A2904D007E0114A3F
:10B4200001219160F5E7828D1206120F05D00D29DA
:10B430000ED1808D0006000F0AD10B48016801294A
:10B4400004D00A49016001680129FCD1C021416191
:10B4500010BD0000DFFF07C000050040006C004089
:10B46000C00F00F00006004000EC0640759300009D
:10B4700010B50249024801F052FD10BDD421002050
:10B480000020004002E008C8121F08C1002AFAD1BB
:10B4900070477047002001E001C1121F002AFBD154
:10B4A00070470000202804DA01218140034801424E
:10B4B00001D001207047002070470000FC06FFBC4F
:10B4C000F7B584B006460025178815802030029015
:10B4D000407B1446002806D03A462146059800F0E5
:10B4E000D1FA050009D1B078002823D00598864606
:10B4F0002088001DB84202D90C2007B0F0BD684674
:10B5000079DF0028F9D12188032072465054208821
:10B510001921401C80B22080115420887146401CA3
:10B5200080B2208041186846008801F08CFD218897
:10B5300040182080F078002817D0218803230A467D
:10B54000F356C91C0598B942D6D8022181542188E6
:10B550000122491C89B2218042542188491C89B2A8
:10B56000218043542088401C20807068002817D018
:10B5700021880023C3560A46C91C0598B942BBD886
:10B580000221815421880A22491C89B22180425417
:10B590002188491C89B2218043542088401C208086
:10B5A000308900280AD000943046019706220221F3
:10B5B0000830059B01F094FD05009ED1308A0028DB
:10B5C0000AD0009430460197072203211030059BD2
:10B5D00001F086FD050090D1308B00280AD0009440
:10B5E00030460197152214211830059B01F078FD93
:10B5F000050082D1306A002806D03B4622460599D4
:10B6000000F022FC0500D8D1706A002806D03B4625
:10B610002246059900F03EFF0500CED10298007B3E
:10B62000002807D03B4622463046059901F0E8FA4B
:10B630000500C2D13078002807D03B46224630466C
:10B64000059900F05BFF0500B7D1284655E700B526
:10B6500087B018216846FFF772FD00216846017027
:10B6600001910172A02202824182017D06200143E4
:10B670006846017573DF002801D000F075F80020DE
:10B6800000F0B0FA07B000BD70B50024074D05E02A
:10B690006968E000085C01F01DF8641C28788442A9
:10B6A000F6D30348006800F0FFF870BD08200020C2
:10B6B000E8D1010070B50024064D06E06968E0009D
:10B6C000085C012101F02AF8641C28788442F5D333
:10B6D000002070BD08200020F8B515460C4606462F
:10B6E000052A01D20720F8BD01F0F0F8002803D1A7
:10B6F00001F0BEF80028F6D1104900204E600C7011
:10B70000C8608D6008610E4D0DE0E0006968801929
:10B71000009181786A46517000780A4A694601F0C2
:10B7200049F80028DFD12046641EE4B20028ECD19D
:10B73000054A0021024800F023F8F8BD0820002047
:10B74000E8D10100E1BF010041BF0100BFF34F8F0D
:10B7500004490348C860BFF34F8F00BFFDE70000F6
:10B760000400FA0500ED00E00EB500210290009102
:10B770006A4601910148FFF7E9FF0EBD0140000054
:10B78000094B5B68002B07D0002A07D0002805D0A2
:10B790000068037C002B03D0082070470720704707
:10B7A00041744261002070472C200020FFB50746FD
:10B7B0009007002581B01E461446002825D1002C94
:10B7C00023D001F09BF93046114EF0603046103026
:10B7D0000570457002998170446075603570012470
:10B7E0000C4875702405046003211420FFF780FDC8
:10B7F00009480460094CA76003211120FFF778FD78
:10B800006068B060002005B0F0BD0720FBE70000D5
:10B810001C20002080E200E000E100E00015014073
:10B82000FEB51F4B5B68002B30D000282ED00529B9
:10B8300001D20720FEBD4369002B27D0437C012B9A
:10B8400026D00027029104460025694616460D7051
:10B85000684600F03DF801A801F02CFC002819D042
:10B86000012101700F4944604968816002990761B4
:10B870004661C16068460A490079487068460078A8
:10B8800000F044F801F0A4FA2846FEBD0820FEBDF1
:10B890000F46D7E768460425007800F037F8F3E74D
:10B8A0002C2000200015014010B5084949680029E6
:10B8B0000AD0002808D04169002905D00021017470
:10B8C000022101F0ADFA10BD082010BD2C2000208F
:10B8D00030B5EFF3108172B6094A54680123002C89
:10B8E00004D00370002900D162B630BD5360054B0F
:10B8F0001D68054C254015601C6000220270F1E7B0
:10B900004020002080E100E0FC06FFBC08494A68B6
:10B91000002A0CD000280AD1EFF3108072B60A6812
:10B92000044B1A6000224A60002800D162B67047BA
:10B930004020002000E100E0F0B50C4693B01F214C
:10B940006A461180072600279180002809D0C17817
:10B9500049070DD502A9FFF7B3FD002809D102ADB3
:10B9600001E000251780002C0ED0E078002802D0DE
:10B97000304613B0F0BD01AA0AA92046FFF7A0FD8A
:10B980000028F6D10AAA02E06846002287806846AD
:10B990008088C3B268460088C1B2284672DFE8E7F3
:10B9A00070B5054601461C220E48FFF7AFFB0E4C52
:10B9B000002626702968002906D00822201DFFF7DE
:10B9C000A5FB201D7ADF02E00748001D7BDF002871
:10B9D00007D1401E60806670044A00210448FFF7CA
:10B9E000CFFE70BD5C210020F41F002051D001006B
:10B9F000D0D10100F8B5214C0146028800261E482E
:10BA0000E589102A13D01E4F112A1FD0122A2BD0DD
:10BA1000502A1AD1881DC988A94216D14189022904
:10BA200013D10C3000F0CDF800280CD112E08A8838
:10BA300004464280104808220C301831FFF766FB9C
:10BA40006670002D01D100F047FAF8BD0021C9430E
:10BA5000418046703868FFF727FF0028F5D0A169BC
:10BA60000029F2D08847F8BD034808220C3008317D
:10BA7000FFF74CFBE7E70000F41F00205C210020EB
:10BA8000D0D101007CB5054608880C4609309042AB
:10BA900001D90C207CBD684671DF0028FAD12188CD
:10BAA0000820685420881B21401C80B22080295423
:10BAB000208800A9401C80B2208040190622013154
:10BAC000FFF724FB20886946801D80B2208009781A
:10BAD000002900D0012129542088401C208000200A
:10BAE0007CBD000010B5044600F072FF2046FFF751
:10BAF00081FF2146014800F033F810BD20210020CD
:10BB000030B50446002085B0C043A0820868124BBF
:10BB10000D46A0610FCB03936B4607C3214612313C
:10BB2000684663DF002814D1A17C684681740B4904
:10BB30000182224604A90120A0DF002809D129465C
:10BB4000204600F077F8002803D12946204600F06F
:10BB5000E1FA05B030BD0000D4D10100231500008A
:10BB60000A88102A10D0112A10D0502A11D1CA8860
:10BB70004388891D9A420CD14A89012A09D18269D8
:10BB8000002A06D0097B1047898801E00021C943BB
:10BB90008182704703B585B001216A461182002277
:10BBA00000920192029203926A469170418911803B
:10BBB00006A9039104A90291808A6946A6DF07B00D
:10BBC00000BD4178027808021043C007C00F7047DB
:10BBD00010B50349085C012100F0BAFE10BD000059
:10BBE000C8D1010010B50349085C002100F0B0FE87
:10BBF00010BD0000C8D101007CB50024074E2546C9
:10BC0000305D0122009500231146019500F066FE8B
:10BC1000641C042CF4D300F003F87CBDC8D10100EF
:10BC200010B500242046FFF7D3FF641C042CF9D381
:10BC300010BD000070B500240546601C90B00007E0
:10BC4000000F08A9103008940870601C0007000F4E
:10BC5000103048708878F9263040801C88701C218C
:10BC600001A8FFF76CFA6946087912210843694672
:10BC70000871029408A80494059407940690A87C7F
:10BC800008A98871144869468884112000940870B6
:10BC9000002048708878F7213040801C0840EF2150
:10BCA0000840400840006946887014210AA8FFF740
:10BCB00046FA09A80A9068460B9001206946088652
:10BCC0004C8688860E942B4628880A330AAA01A936
:10BCD000A2DF10B070BD00002415000010B51128BF
:10BCE00009D10648FFF756FF002806D004498842CC
:10BCF00003D0082801D0FFF737FD10BD2021002018
:10BD0000023000000022D243830004490428CA50B4
:10BD100002D3081820300277704700008C210020E1
:10BD2000F0B50025ED43002A02D00023042601E0EF
:10BD3000042308260B4C04E09F00E7597F1C04D025
:10BD40005B1CB342F8D32846F0BD26185DB22036FE
:10BD500035709E00A151002AF5D1E11820310877F5
:10BD6000F1E700008C210020024909182020085624
:10BD7000704700008C21002070B5084C050009D0E8
:10BD800010342168002907D00868206049682846D7
:10BD90008847F6E70834F4E770BD000078210020FA
:10BDA000F8B52348416800293ED00E6821494C6807
:10BDB00087688078E11B0D022D0AED1C002814D144
:10BDC00001201D4A000450601B4A403A50601B4944
:10BDD000400008601A4908601A49012008602F20B5
:10BDE00000F0ECFB124901208870B54200D23546C4
:10BDF000E81900020F4B000A403318600D4A5168E1
:10BE0000001B091B0902090A0002000AC91C814221
:10BE100009D9506818602F2000F0D0FB0120074995
:10BE2000400480390860F8BD00F068FEF8BD0000ED
:10BE30001C200020001501404013014080E200E07A
:10BE400000E100E000100140F8B5064610881446F5
:10BE50008446801D0D46984201D90C20F8BD3288D9
:10BE60000720062AFAD31927FF01184BBA4201D935
:10BE70009A42F3D171880629F0D3B94201D9994287
:10BE8000ECD19A4203D0994201D08A42E6D80521EA
:10BE90006046295420881221401C80B220802954F9
:10BEA0002088401C80B220804119308801F0CBF8F6
:10BEB0002188401880B220804119708801F0C3F8B1
:10BEC0002188401820800020F8BD0000FFFF0000FE
:10BED00010B5FFF749FC10BDF8B5164800F0E8F8BA
:10BEE000144D00260C3D144C002807D06169002930
:10BEF0001CD001206A461070684616E02878002899
:10BF000005D06169002911D0684606700DE0687897
:10BF100000280DD0A168094800220068FFF780FCC6
:10BF2000002803D0A169002900D088472E70F8BDF1
:10BF30006168F0E7002000205C210020D0D10100E2
:10BF4000F8B500260124154D23E06968F000471874
:10BF5000387821462A698140114218D08A432A61E3
:10BF600000F07CFC3A782146EB689140194003468A
:10BF7000934099420BD17978012901D0012100E049
:10BF800000217B684140002B01D010469847761C69
:10BF9000F6B228788642D8D3F8BD000008200020E9
:10BFA00010B50E4900230A784C78A24212D0521CD8
:10BFB000D2B20A70022A00D10B700A78074B9200A5
:10BFC00018339A580260886810180002000A8860C6
:10BFD000012010BD0360002010BD00001C200020C7
:10BFE000F8B50746104E0125BD403068FFF75CFCF0
:10BFF00000280DD10D4C2069284207D1384600F0A9
:10C000002DFC0028E06804D0284303E0A843206109
:10C01000F8BDA843E0602069002228432061A168A0
:10C020003068FFF7FDFBF8BDE8D1010008200020D3
:10C03000F8B51E4C2078002836D0E068002600288D
:10C040000CD00025607800282ED1684652DF0528E4
:10C0500006D0002806D0FFF787FB0BE00125F1E7AB
:10C06000012607E0009800F0FFFA2169002901D0BD
:10C0700000988847002D13D16078002814D160887B
:10C0800069460880A06861DF052804D0002804D034
:10C09000FFF76AFB04E0012502E0E168A068884739
:10C0A000002ECFD0002DE5D0F8BD000048200020A4
:10C0B000418805480288914204D34088814201D8D2
:10C0C0000120704700207047F81F00201048018CA5
:10C0D000C9B2012917D1818C090714D1018D090634
:10C0E0000A0F03D1828D1206120F0ED0090F0129FB
:10C0F00003D1828D1206120F07D0032903D1808D40
:10C100000006000F01D0002070470120704700009A
:10C11000C00F00F030B58FB005461C216846FFF710
:10C120000EF8694608780A21084369460870002419
:10C1300001940394049405940694A87C08A988703B
:10C14000154869460884601C0007000F10300794EA
:10C15000087711204877887FF9210840F721801C53
:10C160000840EF21084040084000694688771421C4
:10C1700009A8FEF7E4FF08A8099007A80A90012083
:10C1800069468885CC8508860D942888AB1C09AA49
:10C19000A2DF0FB030BD00002515000010B500294A
:10C1A00003D00220FFF71EFD10BD0220FFF710FD97
:10C1B00010BD0000F0B5284C2146103948688B6846
:10C1C000227886469C46CF78667836E0182353431B
:10C1D0006168521CC918A378D2B2934200D10022E0
:10C1E0000B78022B02D0032B27D123E003464D68A6
:10C1F000194603E0A94204D00B46C96900291CD0A6
:10C20000F8E7002919D08B4208D1C069002805D170
:10C21000124F0125BD600025AC4601270D68C96994
:10C22000D961002909D00B685B190B6005E0017426
:10C23000C06900E000210028F9D19642C6D1064924
:10C24000624610398A604860CF70704501D0012085
:10C25000F0BD0020F0BD00002C20002000100140A7
:10C26000F8B52C4E044670680025009041E0002C83
:10C2700002D02046E46920E02648182310300178D7
:10C2800042684B43491CC9B2D21801708378994265
:10C2900000D105701178506801292CD1017C00294A
:10C2A00029D191684160D16881601169C16051698B
:10C2B0008161F178002900D045604368B268164F6B
:10C2C000991A0902090AB94202D28268891806E05D
:10C2D000D11A09028268090A8A4202D9511A0160F8
:10C2E00000E005604560012185600174C56100F0D2
:10C2F00077FD002CBBD1074810300178407881428F
:10C30000BAD171680098814201D00120F8BD0020A7
:10C31000F8BD00001C200020FFFF7F00A0B0FFF749
:10C320006BFC0023524A05211846FFF73FFA00280C
:10C3300001D0FFF719FA4F4A01214F48FFF7CCF916
:10C34000002801D0FFF710FA4C4D49496868059064
:10C3500000234822783105A800F0C6FC002801D04F
:10C36000FFF702FA6A460121002000F0A5FC002830
:10C3700001D0FFF7F9F9684600F094FC002801D0DD
:10C38000FFF7F2F93E4800F083FC002801D0FFF7E8
:10C39000EBF911206946087203223AA102A87CDF5A
:10C3A000002801D0FFF7E0F90024009450216846EE
:10C3B00001940180A0214180FF2184809131C180BE
:10C3C0007ADF002801D0FFF7CFF90720C04377DFDD
:10C3D0002D48009026486946C030FFF791FB0028A1
:10C3E00001D0FFF7C1F928681E902148C030817C38
:10C3F00018A881763C216846FEF7A1FE0221684616
:10C400000170012585700621C1703C210FA8FEF73F
:10C4100096FE10A885811EA814900FA96846FFF704
:10C420008BFA002801D0FFF79FF91C216846FEF720
:10C4300086FE0520400401908010029000940321A4
:10C4400068460173C4810474104805901048069032
:10C450006846FFF7A5FA002801D0FFF785F9FFF736
:10C46000F6F848DF0028FCD0FFF77EF9F9E7000076
:10C470006020002066060000EC1F0020C0D10100F3
:10C48000E5BA010054776F009DC10100ADCA0100FB
:10C49000D1BE010070B5144682880E46054620883C
:10C4A000111D4118921C994201D8FE2A01D90C2075
:10C4B00070BD521C32542088FF21401C80B2208065
:10C4C00031542088401C80B220808119288800F0D7
:10C4D000BAFD2188401880B22080AA88002A09D09D
:10C4E000A968002908D08019FEF710FE2088A988C5
:10C4F00040182080002070BD072070BDF8B50F46A1
:10C50000017814460546012902D16878002806D032
:10C510002088821C9A422DD8012902D006E00720EB
:10C52000F8BD69784118891C994223D8181A801ED1
:10C5300086B2684606802188B81C081869467DDFE7
:10C540000028EDD12878022805D169460988B14232
:10C5500001D809210AE00821012805D16878B042F4
:10C5600002D86A46108001E0684606806846008866
:10C57000FE2801D90C20F8BD2288401CB854208820
:10C58000401C80B22080395420886946401C20809D
:10C590000988401820800020F8BDC20843075B0FBF
:10C5A0000120895C984008407047012189074018A4
:10C5B0000068002800D001207047000000280FD03C
:10C5C0000849094A096800BF00BF00BF00BF00BF9B
:10C5D00000BF00BF00BF914200D000BF401EF2D19B
:10C5E000704700005C2000200024F40070B50E4C61
:10C5F00000252078002801D0852513E00021A160C6
:10C6000061602161E160094800680126304002D183
:10C61000032100F02FF800F093FB002801D104481B
:10C6200086612670284670BD7821002000E100E078
:10C630000005004038B50020694608706846FFF7DD
:10C6400047F9084C2078002801D1FFF7CFFFE068B8
:10C65000401CE0600120A07068460078FFF756F9A2
:10C6600038BD00007821002010B5002801D1FFF767
:10C6700083FB10BD8207D30EFF229A408907090E63
:10C6800010B5994000280BDA03071B0F083B9C08E4
:10C690000C4BA400E318DC6994430C43DC6107E015
:10C6A0008408094BA400E418236893430B432360D8
:10C6B000C106C90E01208840044908600449086089
:10C6C00010BD000000ED00E000E400E080E200E0CA
:10C6D00000E100E010B5044600F0F8F9002804D0AD
:10C6E0000021204600F022F910BD204600F0FAF9A2
:10C6F0000028F9D02046FFF737FB06498200511881
:10C700000A69520852000A61012181400248816091
:10C7100010BD00000065004000630040F3B581B02B
:10C72000054600F0D3F91F4F0028284617D0FFF721
:10C730001BFBC0192030007F8009032802D001288C
:10C740000BD005E018480069E840C007C00F04D0CE
:10C750000321284600F0EAF8FEBD0221F9E700F0C7
:10C76000C1F90028F8D02846FFF7FEFA04468000F9
:10C77000C11D0E4AF9318018026989B2012632437F
:10C780000261084600F004F902980028E4D0284627
:10C79000FFF7EAFA800038580028DDD00448A640A8
:10C7A0004660FEBD8C210020000500500065004061
:10C7B00000630040FEB5044625480E4600192021BE
:10C7C00041560027C8171346401C01D008273CE0FB
:10C7D000F27819462046FFF7A3FA0546401C33D0ED
:10C7E000B07800280BD005200007A1000918072009
:10C7F00000020918086802229043086007E000213F
:10C800007378204600910A46019100F07BF8F07899
:10C81000002810D00F48AA001018317802690E4B7A
:10C820001A400261E206D20C8907890B0A430169AA
:10C830000A43026109E00648327840192030017F3E
:10C8400092011143017700E004273846FEBD000045
:10C850008C21002000650040FFE0FCFF03490969CE
:10C86000C140C807C00F00D001207047000500502C
:10C8700070B5144D2879002801D0082070BD1149E9
:10C8800000204039421E0B182033401CC0B21A70E1
:10C890002028F8D300242046FFF734FA641CE4B2C1
:10C8A000082CF8D303210620FFF7E4FEFF207D309B
:10C8B00000F06EF801200449C0074860012028718B
:10C8C000002070BDCC2100200063004002480079A8
:10C8D000002800D001207047CC21002070B5520004
:10C8E0000A439900049D0A432902059E0A43310424
:10C8F00005240A4324078000072100190902401873
:10C90000026070BD70B552000A439900049D0A434D
:10C910002902059E0A43310405240A4324078000A6
:10C920000721001909024018026070BD0522120794
:10C9300080008218072000021018026803231B04DD
:10C940009A430260026809040A43026070470000CB
:10C95000012282400348002901D082607047C260F2
:10C96000704700000005005038B5084B05241B68CF
:10C97000009324026B46411805E085005D592D198E
:10C980002D69401C20C28142F7D838BDE4D1010096
:10C99000024940180021016070470000006000401B
:10C9A000034940180068012800D0002070470000AB
:10C9B000006000404058002800D00120704703224A
:10C9C000120280184068084000D001207047000023
:10C9D00070B50446344D00882E8888B03A283DD082
:10C9E00012DC02283ED0102818D0112821D013289C
:10C9F00008D100231A46852130467FDF002801D068
:10CA0000FEF7B2FE08B070BD51282FD052281FD0BB
:10CA10005528F7D1A088132176DFEFE70120FFF733
:10CA2000E1F80020FFF7D4F8A0882880FEF742FE46
:10CA3000E4E70120FFF7CCF80020C0432880FEF790
:10CA400023FE002801D0FEF78FFEFEF700FED9E797
:10CA500000231A4619463046A9DFCFE7A0881321E4
:10CA600076DFCBE7A088002167DFC7E71022A11D92
:10CA700004A8FEF74BFB6846017C0029C2D0007E6B
:10CA8000042803D0062801D00528BBD1022908D0EC
:10CA9000012069460870FF2083308880A088A8DFC5
:10CAA000ACE70220F5E70000E81F002010B5007891
:10CAB000002807D104483B21008876DF002801D0F8
:10CAC000FEF752FE10BD0000E81F002004490818C0
:10CAD00020214156042901DB0120704700207047C6
:10CAE0008C2100200449081820214156042901D234
:10CAF00001207047002070478C21002070B5012470
:10CB00000B49600408600B494010886009494039AE
:10CB10008860094D6C602F20FFF750FDAC60074D19
:10CB200000242F20AC60FFF749FDAC7070BD000001
:10CB300080E100E040130140001001401C20002073
:10CB400030B5FF220523CD7D002409321B02C31816
:10CB5000002D8450986905D04B7ECA68D054487E19
:10CB6000401C487630BD1FB501246B461C701972FD
:10CB7000019206C8684690471FBD000010B50446E4
:10CB8000FEF790FC00280CD0A007C00E002C0ADA9B
:10CB90002107090F08398908144A89008918C969C9
:10CBA00006E0134810BDA108124A890089180968D7
:10CBB000C1400806800F042811D200280FD0022897
:10CBC0000DD00D494B68E206D20E01209040002B9B
:10CBD00008D0620992008B5803438B5004E004484C
:10CBE000401C10BD05490860002010BD00ED00E0AC
:10CBF0000120000000E400E04020002000E100E00F
:10CC0000FFB50746806A81B0144600283DD0002554
:10CC100038462030009033E00C20B96A68430E1883
:10CC2000B088801CFE2802D90C2005B0F0BD2288F7
:10CC30000299401C885420881622401C80B2208013
:10CC400002990A542088401C80B220800299411821
:10CC5000308800F0F8F92188401880B22080B2882E
:10CC6000002A0AD0B16800290FD0029BC018FEF735
:10CC70004DFA2088B188401820806D1C0098EDB2D4
:10CC8000007BA842C8D80020CFE70720CDE70000EE
:10CC9000002803D00249C860002070470E2070476A
:10CCA000482000201CB5034901910091694660DFCE
:10CCB0001CBD0000E81F002070B50E460546144656
:10CCC00014211046FEF73BFA01200021208021614B
:10CCD000217326726572002D00D0A072002070BDF5
:10CCE00010B5FEF733FD10BDF8B5002903D08C0751
:10CCF0000025002C01D00720F8BD0E4E0E4FB1606C
:10CD00007280736039680124214003D00A492546A6
:10CD100080310C60094910DF002803D0002DEBD0D2
:10CD20003C60F8BD3470FFF785FC1620FFF726FF46
:10CD3000F8BD00004820002000E100E0E1CC010047
:10CD4000014800787047000048200020FEB51F4CC5
:10CD50000025A768606802906846FFF721F90190F6
:10CD6000FFF728FA06460198002822D000230098F1
:10CD7000616817E00E680A46864202D9301A0860D8
:10CD800012E0801BF31800261660D668D169B446FD
:10CD9000002E07D0FE183602360A566066469660A8
:10CDA000D56115460029E5D128466160FFF758FA9C
:10CDB00006E02846FFF754FA002801D1002E02D0E1
:10CDC0000298FEF7EDFF0020E070FEBD1C20002061
:10CDD00001200249000508607047000000E200E001
:10CDE00010B50E4B5968002906D002680C68A242A3
:10CDF00004D8A21A0A60C161586010BD0B4604E055
:10CE00000B46C969121B002904D00C689442F7D361
:10CE1000A41A0C600260C161D86110BD1C20002002
:10CE20007CB50D460646002469460C706846FEF740
:10CE30004FFD01A800F03EF900280DD005704660B6
:10CE4000684608490079487068460078FEF75EFD3C
:10CE5000FFF7BEFF20467CBD684604240078FEF73D
:10CE600055FDF7E72C200020F8B51D4D6C68002C0F
:10CE700034D01C4800274068A968401A0602360AC8
:10CE80002068B04218D8361AC7192246107CE469C7
:10CE900000280FD000201074EB68002B07D0916998
:10CEA00050699847002805D0FEF75EFC02E0516902
:10CEB00090698847002CE3D129786878814206D1AF
:10CEC000401CC0B26870022801D10020687004497B
:10CED0000006800D18310F50FFF77AFFF8BD0000F3
:10CEE0001C20002000150140FF221D32002383502A
:10CEF0008B8A8A68D25C8B8A5B1C8B820521090233
:10CF00004018C26170471FB500226B461A70197233
:10CF100081680191827506C8684690471FBDF0B5CB
:10CF20000C46012185B005464902FFF748FD032163
:10CF300009026F180026002826D0FF212531284637
:10CF4000FFF738FD00281FD0FF2025302E5081200C
:10CF50008000B860A07E002801D101206860022115
:10CF6000684601700920C00129180868086003900C
:10CF7000E17D68460172E0680190E675267606CC90
:10CF80006846083C90472DE004212846FFF717FD2E
:10CF9000002827D0FF2109312846FFF70BFD002884
:10CFA00020D021462846FFF7CBFDE07D617E8842F8
:10CFB00018D1207E002807D0617EE268E0752069E4
:10CFC000E060267666760AE0A07E002801D1012086
:10CFD000686081208000B860E675617EE268204666
:10CFE000FFF7C1FDFF271D3739462846FFF7E2FC52
:10CFF00000280FD0A08AA17D884204D2214628466D
:10D00000FFF772FF06E0EE51A17D002902D0204615
:10D01000FFF779FFFF27453739462846FFF7CAFC57
:10D0200000280ED0EE51A07E002801D001202860FB
:10D03000E07D002805D0E675617EE2682046FFF7B6
:10D0400092FD05B0F0BD0870000A487002207047DC
:10D0500038B51549154A488890420FD04A78144C83
:10D06000521CD2B24A70237B934208D3091D75DF4C
:10D07000002803D0A169002900D0884738BD0025C9
:10D080004D70217C002907D03B2176DF002803D09A
:10D09000A169002900D0884761690029EED068465F
:10D0A0000570884738BD0000F41F0020FFFF000016
:10D0B0005C21002010B509494B788C785A1CD2B2FB
:10D0C000944200D100220C78944201D1002010BD7E
:10D0D0000270486818214B43C01810BD2C20002056
:10D0E000FFB583B016460C9D0D9C1F46022200958D
:10D0F0000194039800F00CF8002807D13B46102259
:10D10000314600950194039800F002F807B0F0BD95
:10D11000FFB583B0074600200C9C8646268805464E
:10D120003AE07868A90042181188684681805188E1
:10D13000C1800022694601A865DF002839D1684610
:10D1400001780598814226D17046002801D000223E
:10D1500000E002222088891842180D998A4227D8B7
:10D16000714600290AD1401C80B22080069A049999
:10D1700011542088401C2080012086462188069872
:10D180000A18694601A865DF002812D1694620887F
:10D190000978401820806D1C3888A842C1DC704690
:10D1A00000280AD02088801B401E80B2FF2802D9A8
:10D1B0000C2007B0F0BD069988550020F9E7000063
:10D1C000231500000100000715161718111213147B
:10D1D0003C21002023D1BCEA5F782315DEEF121238
:10D1E0000000000000000050F021002003000000BB
:10D1F00010D20100E81F00207800000084B4010074
:10D2000088D2010060200020B009000094B4010021
:10D21000FFFF000011000300DDBC01000000000062
:10D2200000000000000000000000000000000000FE
:10D2300000000000000000000000000000000000EE
:10D2400000000000000000000000000000000000DE
:10D2500000000000000000000000000000000000CE
:10D2600000000000000000000000000000000000BE
:10D2700000000000000000000000000000000000AE
:08D28000000000000024F4008E
:040000050001B0C185
:00000001FF
