:020000040001F9
:10F000007043002015F401001DF401001FF40100FD
:10F0100021F4010023F4010025F4010000000000A8
:10F0200000000000000000000000000027F40100C4
:10F0300029F40100000000002BF401002DF4010070
:10F04000A9F601002FF40100E9F901002FF40100F5
:10F050002FF401002FF40100A5F401002FF40100AA
:10F060002FF401002FF401002FF401002FF4010010
:10F070002FF401002FF401002FF401002FF4010000
:10F080002FF4010001F701002FF401002FF401001B
:10F0900025F701002FF4010029F701002FF40100EA
:10F0A0002FF401002FF401002FF401002FF40100D0
:10F0B0002FF401002FF40100000000000000000008
:10F0C0002FF401002FF401002FF401002FF40100B0
:10F0D0002FF401002FF401002FF4010000000000C4
:10F0E0000000000000000000000000000000000020
:10F0F0000000000000000000000000000000000010
:10F1000000000000000000000000000000000000FF
:10F1100000000000000000000000000000000000EF
:10F40000DFF80CD000F03CF800480047CD080200BF
:10F41000704300200648804706480047FEE7FEE7A5
:10F42000FEE7FEE7FEE7FEE7FEE7FEE7FEE7FEE7B4
:10F430004DF7010001F4010040EA01039B0703D0EE
:10F4400009E008C9121F08C0042AFAD203E011F823
:10F45000013B00F8013B521EF9D27047D2B201E0E5
:10F4600000F8012B491EFBD270470022F6E710B5C9
:10F4700013460A4604461946FFF7F0FF204610BD22
:10F48000064C074D06E0E06840F0010394E80700F1
:10F4900098471034AC42F6D3FFF7B6FFB01802001D
:10F4A000D01802002DE9F04700268CB0DFF86091FB
:10F4B000B0464FF48075012437460696284601F081
:10F4C00051FD38B1D9F80403204203D0284601F099
:10F4D0003FFD26432D1D64007F1CADB2082FEDD3E8
:10F4E0004FF4BE74204601F03DFD48B1204601F0C6
:10F4F0002FFD46F0004606AA0121002001F014FD70
:10F50000444D16F0FF0F15D00127002437420DD0CF
:10F5100009EB8401D1F81005D1F81015C0F30420CF
:10F5200055F82420C1F3014102B190477F00641CCB
:10F53000082CEBD3002E67DA4FF0FF30CDE90880BE
:10F5400000263446281910F8507F90F9000027F063
:10F55000C008401C44D009A9404601F0D5FA58B370
:10F560004FEA9719404600F0FFFE55F820701FB192
:10F57000B9F1030F03D00FE0B9F1030F30D108A8A0
:10F580004FEAD80208F00703815C4FF0010C0CFA37
:10F5900003FC41EA0C0181544FF0A04101EB8800CB
:10F5A000D0F8000706A9C0F3014A404601F0ACFAC2
:10F5B00018B1BAF1020F03D012E0BAF1030F0FD164
:10F5C000B9F1030F08D1BAF1020F1BD00221404656
:10F5D00001F08EFC761CF6B217B149464046B8479A
:10F5E000641C042CAED3002E0ED06A4601210020EC
:10F5F00001F09AFC06990098884205D00690089878
:10F6000009909DE70321E2E70CB0BDE8F087000018
:10F6100000600040C822002000F01F02012191403C
:10F620004009800000F1E020C0F88012704700F02F
:10F630001F02012191404009800000F1E020C0F844
:10F640008011704700F01F020121914040098000A5
:10F6500000F1E020C0F80011704700F01F02012106
:10F6600091404009800000F1E020C0F8001170478F
:10F6700000F01F02012191404009800000F1E020CC
:10F68000C0F8001270474907090E002806DA00F09A
:10F690000F0000F1E02080F8141D704700F1E02019
:10F6A00080F80014704700002DE9F0414FF4807796
:10F6B000384601F031FA0124104EA50748B138460A
:10F6C00001F031FA0120C5F808037470002000F041
:10F6D00053FE4FF48277384601F01EFA00280BD013
:10F6E000384601F020FA0220C5F80803B470BDE8DE
:10F6F000F041012000F040BEBDE8F081B4220020BE
:10F7000007480021C0F84011C0F84411C0F8481162
:10F71000C0F84C11C0F80011C0F8041101F094BEFB
:10F720000010014001F008BE074810B5406830B134
:10F730008047002807D0BDE8104000F0D9BABDE8E6
:10F74000104000F073BF10BD7C210020F0B5984838
:10F750000023021D01780125101D4FF08056062957
:10F7600007D11478240704D10478C4F30314032CBC
:10F7700002D0062904D00FE08F4F8E4C7C670EE03C
:10F780001478240708D10478C4F30314032C06D09A
:10F79000042C04D0052C02D0062907D00EE0D6F8A0
:10F7A0004442864FC4F342343C6002E0147824079C
:10F7B00004D10478C4F30314032C02D0062906D024
:10F7C00011E07F4C276827F0807727600EE01478DF
:10F7D000240708D10478C4F30314032C06D0042CA6
:10F7E00004D0052C02D006290AD011E04FF0804445
:10F7F000C4F80C31C4F81031704C241F236002E0AF
:10F800001478240704D10478C4F30314032C02D021
:10F81000062905D00CE0694F032464373C600AE0F8
:10F820001478240704D10478C4F30314032C02D001
:10F8300006290DD014E0634F05243C60614C7834F8
:10F840002560604C083423603F243F1D3C6002E08B
:10F850001478240704D10478C4F30314052C02D0CF
:10F86000062957D068E058490968584A1160564936
:10F87000091D0968121D1160534908310968121DDC
:10F88000116051490C310968121D11604E49103147
:10F890000968121D11604C4914310968121D11606C
:10F8A000494918310968494A2032116046491C31DA
:10F8B0000968121D1160444920310968121D116048
:10F8C000414924310968121D11603F4928310968F6
:10F8D000121D11603C492C310968121D11603A4912
:10F8E00030310968394A403211603749343109688A
:10F8F000121D1160344938310968121D11603249F6
:10F900003C310968121D11602F4940310968121DF0
:10F91000116002E0117809070ED10078C0F30310DE
:10F92000032803D0042801D0052805D1D6F85802B1
:10F93000274900F04F00086021487438016841F4FD
:10F9400070010160BFF34F8FBFF36F8F4FF0102135
:10F95000D1F80002002803DBD1F80402002822DAE3
:10F960001C4A15601C480468002CFCD01524C1F802
:10F9700000420568002DFCD0C1F80442016800294E
:10F98000FCD0136001680029FCD0BFF34F8F0C48F6
:10F99000F0380168114A01F4E06111430160BFF3DE
:10F9A0004F8F00BFFDE70F490D480860F0BD000014
:10F9B000E00F00F00DF0ADBA00C007403C0500407C
:10F9C000FCED00E0105600400404001020C500408B
:10F9D000E40E004004E5014000E401400400FA05A3
:10F9E0000090D003902100200448017F04480029A2
:10F9F000024901D001F017BE01F086BD202300208E
:10FA00000020004002E008C8121F08C1002AFAD1F5
:10FA100070477047002001E001C1121F002AFBD18E
:10FA2000704700000121202803DA81400548014089
:10FA300003E0402802DA2038814009B101207047F4
:10FA400000207047FC06FFBC2DE9FC470025178805
:10FA50000646158090F82D001446894630B13A4686
:10FA60002146484600F0CEFA050009D1B0784FF0A3
:10FA70000C0A18B32088C846001DB84202D9504667
:10FA8000BDE8FC87684679DF0028F9D1208803218A
:10FA900008F8001020881921401C80B2208008F846
:10FAA00000102088401C80B2208000EB0801BDF8C7
:10FAB000000001F030FE218808442080F078022206
:10FAC000C8B1218896F9033001F1030C4846BC45C2
:10FAD000D5D8425421884FF0010C491C89B22180AD
:10FAE00000F801C02188491C89B2218009F8013041
:10FAF0002088401C20807068B8B1218890F90030BF
:10FB000001F1030C4846BC45B9D8425421880A2269
:10FB1000491C89B2218042542188491C89B2218024
:10FB200009F801302088401C2080308950B1CDE98F
:10FB300000474B460622022106F1080001F038FE7C
:10FB400005009DD1308A50B1CDE900474B460722D0
:10FB5000032106F1100001F02BFE050090D1308B3F
:10FB600050B1CDE900474B461522142106F118008B
:10FB700001F01EFE050083D1306A30B13B462246BB
:10FB8000494600F063FC0500DBD1706A30B13B46AA
:10FB90002246494600F038FF0500D2D196F82C00E5
:10FBA00038B13B4622464946304601F01FFB05006E
:10FBB000C7D1307838B13B4622464946304600F03E
:10FBC00055FF0500BDD128465AE71FB5002000901B
:10FBD0000290039001908DF800008DF80800ADF8B8
:10FBE0000C009DF80E00A02140F006008DF80E00DC
:10FBF000ADF80A10684673DF08B100F079F800200C
:10FC000000F0DAFA1FBD000070B50024084D05E0D1
:10FC1000686810F8340001F033F8641C28788442D6
:10FC2000F6D304480068BDE8704000F0FBB800005F
:10FC300048210020A818020070B50024064D06E0F7
:10FC40006868012110F8340001F03EF8641C28783F
:10FC50008442F5D3002070BD48210020F8B5154638
:10FC60000C460646052A01D20720F8BD01F012F91C
:10FC700018B901F0E1F80028F7D1104900204E60D2
:10FC80000C70C1E902500E4D08610DE006EBC40096
:10FC90006968009181788DF801100078094A6946F9
:10FCA00001F064F80028E0D1641EE4B2EED2BDE8B1
:10FCB000F840054A0021024800F026B848210020FB
:10FCC000A8180200D505020035050200BFF34F8FCA
:10FCD00005480168054A01F4E06111430160BFF382
:10FCE0004F8F00BFFDE700000CED00E00400FA05B7
:10FCF0000EB500210091CDE901106A4644F20100E1
:10FD0000FFF7E4FF0EBD0000074B5B6823B12AB18B
:10FD100020B10068037C1BB10820704707207047A2
:10FD200041744261002070476C2100202DE9F047AA
:10FD3000074698461446894690074FF0000526D19D
:10FD40002CB301F0D7F9134E06F11000C6F80C8061
:10FD50000570457080F8029044607560357075706C
:10FD60001420FFF759FC07211420FFF78CFC142006
:10FD7000FFF768FC0848076007211120FFF783FCA4
:10FD80000548001F0068B0600020BDE8F08707202C
:10FD9000FBE700005C210020081501402DE9FC472D
:10FDA000DFF87890D9F8043073B368B3052902D22C
:10FDB0000720BDE8FC87436933B3437C012B25D082
:10FDC000002704460025884616468DF800506846F0
:10FDD00000F038F801A801F0D3FCC8B1012101708E
:10FDE0000F4944600968C0E90218C0E904769DF82B
:10FDF000040089F801009DF8000000F047F8142085
:10FE0000FFF736FC2846D4E70820D2E70F46D8E7AC
:10FE100004259DF8000000F039F8F3E76C2100207C
:10FE2000041501400649496839B130B1416921B131
:10FE300000210174022101F0E3BA0820704700009C
:10FE40006C21002030B5EFF3108172B60D4A946832
:10FE5000012324B10370002900D162B630BD936044
:10FE60004FF0E023D3F88051074C25401560C3F8CC
:10FE70008041D3F8844154605A17C3F8842100228A
:10FE80000270E8E760230020FC06FFBC0B498A688B
:10FE9000002A11D000280FD1EFF3108072B60B6842
:10FEA0004FF0E022C2F800314B68C2F80431002262
:10FEB0008A60002800D162B67047000060230020ED
:10FEC000F0B50C4693B01F210726ADF80010ADF831
:10FED0000410002750B1C17849070DD56A4602A920
:10FEE000FFF7B2FD002808D102AD02E00025ADF811
:10FEF00000706CB1E07810B1304613B0F0BD01AACB
:10FF00000AA92046FFF7A0FD0028F6D10AAA02E0C0
:10FF10000022ADF80470BDF80400C3B2BDF80000C3
:10FF2000C1B2284672DFE8E770B5054601461C22DB
:10FF30000F48FFF781FA0F4C00262670286830B171
:10FF4000016861604068A060201D7ADF02E0094816
:10FF5000001D7BDF00280AD14FF6FF7060806670BD
:10FF6000BDE87040044A00210448FFF7CDBE70BDD3
:10FF7000982200203421002021170200901802004E
:10FF800070B51E4C068800231B49E289102E15D03F
:10FF90001B4D112E1CD0122E29D0502E17D130F807
:10FFA000061F914213D14189022910D10C3000F073
:10FFB000C9F888B1BDE8704000F08EBA84884C80E2
:10FFC0000469CC60406908614B70002AF2D070BDB2
:10FFD0004FF6FF7048804B702868FFF723FF00281A
:10FFE000F5D0A1690029F2D0BDE8704008478268C9
:10FFF000CA60C0680861DDE7342100209822002033
:020000040002F8
:10000000901802007CB5054608880C4609309042DD
:1000100001D90C207CBD68466DDF0028FAD121880B
:100020000820685420881B21401C80B2208029545D
:100030002088401C80B220802844DDF80110016037
:10004000BDF8051081802088801D80B220809DF839
:100050000010490800D0012129542088401C20802C
:1000600000207CBD10B5044600F0A0FF2046FFF73D
:1000700087FF2146BDE81040014800F031B800007C
:100080005C22002030B5044685B04FF6FF70A08298
:10009000124B08680D46A0610FCB8DE80F0004F1EC
:1000A0001201684663DF002816D1A07C8DF812008B
:1000B00041F22350ADF81000224604A90120A0DF30
:1000C000002809D12946204600F09DF8002803D1D8
:1000D0002946204600F0F4FA05B030BD941802001D
:1000E0000A88102A10D0112A10D0502A11D131F8C4
:1000F000062F43889A420CD14A89012A09D1826984
:10010000002A06D0097B1047898801E04FF6FF716D
:100110008182704703B585B0012100220092ADF8BD
:1001200010100192029203928DF802104189ADF8ED
:10013000001006A9039104A90291808A6946A6DFEE
:1001400007B000BD007800F00100704700B513480B
:1001500089B00023406807905022114907A801F098
:10016000B3F808B1FFF7C4FD6A460121002001F091
:1001700095F808B1FFF7BCFD1720ADF810006846F0
:1001800001F082F808B1FFF7B3FD064801F072F8FC
:10019000002801D0FFF7ACFD09B000BD80180200B7
:1001A0000C220020650002000249085C012100F0D9
:1001B000B0BE0000881802000249085C002100F06F
:1001C000A8BE0000881802007CB50024084E254611
:1001D0000122305D009500231146019500F064FE78
:1001E000641C042CF4D3BDE87C4000F003B800008C
:1001F0008818020010B500242046FFF7D5FF641CC4
:10020000042CF9D310BD30B58FB0002405460794F7
:100210009DF81C001C2120F00F00401C20F0F00075
:1002200010308DF81C009DF81D0020F00F00401CC0
:1002300020F0F00010308DF81D009DF81E0020F019
:100240000600801C8DF81E006846FFF70EF99DF829
:100250000000019440F012008DF8000007A8CDE9DD
:10026000044003940694A87C8DF83A0041F224508F
:10027000ADF838000D949DF83400142120F00F00E3
:10028000401C20F0F00010308DF834009DF835004F
:1002900020F0FF008DF835009DF8360020F00600B4
:1002A000801C20F019008DF8360008A8FFF7DDF853
:1002B0000EA808900DA809900120ADF82800ADF80F
:1002C0002A40ADF82C000C94288805F10A0308AAEE
:1002D0006946A2DF0FB030BD10B50D280AD108481D
:1002E000FFF718FF002809D0A0F54051023905D0CA
:1002F000082803D0BDE81040FFF7FABC10BD00008D
:100300005C22002005494FF0FF32082841F82020E8
:1003100002D3084480F8482070470000C82200201B
:10032000F0B54FF0FF3512B10023082601E0082395
:100330000C260C4C05E000BF54F823707F1C04D041
:100340005B1CB342F8D32846F0BD26185DB286F890
:10035000305044F82310002AF5D1E11881F8480004
:10036000F1E70000C82200200249084490F930005B
:1003700070470000C822002070B5084C050009D065
:1003800010342168002907D0086820604968284691
:100390008847F6E70834F4E770BD0000B422002077
:1003A0002DE9F05F26484168F1B3DFF898B00E6898
:1003B0008146DBF8004087688078E11B21F07F45AB
:1003C000ED1CB0B9DFF880804FF48030C8F84403EA
:1003D000C8F804031120FFF71FF91120FFF732F9C5
:1003E0004FF0010AC8F800A02F2000F0A5FB89F803
:1003F00002A0B54200D23546124BE8193C3320F03A
:100400007F401860DBF800105A46091B21F07F413D
:10041000001B20F07F40C91C81420FD91068186072
:100420002F2000F089FB00E004E0BDE8F05F112020
:10043000FFF71EB9BDE8F05F00F05CBEBDE8F09FBD
:100440005C21002004150140001001402DE9F0411D
:1004500017880646B81D14460D46984202D90C204E
:10046000BDE8F0813188072206290AD34FF4486C91
:100470004FF6FF73614501D9994202D17088062871
:1004800001D21046ECE7604501D99842F9D1994272
:1004900003D0984201D08142F3D80520E855208846
:1004A0001221401C80B2208029542088401C80B238
:1004B00020804119308801F02EF92188084480B24B
:1004C00020804119708801F026F921880844208095
:1004D0000020C5E7FFF70CBCF8B5134800F0E2F8C0
:1004E000114D0026114C0C3D30B16169B9B10120AC
:1004F0008DF80000684611E0287820B1616971B17B
:100500008DF80060F6E7687858B1A16808480022C5
:100510000068FFF743FC10B1A16901B188472E7054
:10052000F8BD6168F2E70000402100209822002019
:10053000901802002DE9F04100260125144C22E01C
:100540006068226900EBC607387805FA00F11142AD
:1005500017D08A43226100F065FC02463878E368D0
:1005600005FA00F1194002FA00F3994209D17978AD
:10057000012901D0012100E0002151407A6802B137
:100580009047761CF6B220788642D9D3BDE8F08138
:10059000482100200E4910B50A784C780023A24269
:1005A00012D0521CD2B20A70022A00D10B70084A33
:1005B0000B78183252F8232002608868104420F02B
:1005C0007F408860012010BD0360002010BD000046
:1005D0005C2100202DE9F041124E07460125BD4067
:1005E0003068FFF71FFC00280DD10F4C206928420E
:1005F00007D1384600F016FC0028E06805D02843F3
:1006000004E0A8432061BDE8F081A843E0602069D0
:1006100028432061A1683068BDE8F0410022FFF75F
:10062000BDBB0000A818020048210020F8B51C4CF2
:100630002078002832D0E068002658B10025607884
:1006400000282BD1684648DF052805D030B1FFF7D8
:100650004FFB0AE00125F2E7012606E0009800F0D2
:10066000EDFA216909B1009888479DB960780028A2
:1006700014D16088ADF800006946A06861DF0528E4
:1006800003D020B1FFF734FB04E0012502E0D4E9F8
:1006900002018847002ED2D0002DE6D0F8BD000020
:1006A0007C210020054940880A88904204D349886B
:1006B000884201D80120704700207047382100206F
:1006C00030B58FB005461C216846FEF7CEFE0024EB
:1006D0009DF80000019440F00A008DF8000003949A
:1006E000049405940694A87C8DF8360041F22550B8
:1006F000ADF834000C949DF83000142120F00F0068
:10070000401C20F0F00010308DF830009DF83100D2
:1007100020F00F00401C20F0F00010308DF8310068
:100720009DF8320020F00600801C20F019008DF8A2
:10073000320007A8FEF799FE0DA807900CA80890B4
:100740000120ADF82400ADF82640ADF828000B9448
:100750002888AB1C07AA6946A2DF0FB030BD4FF056
:10076000020009B1FFF728BDFFF71EBD2DE9F043D8
:10077000264CA4F110092278D9F8048099F8035086
:10078000404694F801C0D9F8086031E002EB42031A
:100790006168521C01EBC301A378D2B2934200D12D
:1007A00000220B78022B02D0032B21D11DE003463F
:1007B0004F68194603E0B94203D00B46C969B9B185
:1007C000F9E7A9B18B4205D1C06918B9104E0125CE
:1007D000B56000260F68C969D96149B10B683B440F
:1007E0000B6005E00174C06900E000210028F9D128
:1007F0009445CBD1C9E9010689F80350404502D0A0
:100800000120BDE8F0830020FBE700006C21002000
:10081000001001402DE9F0412A4F0446002607F15F
:100820001005D7F804803EE002D02046E4691DE0C0
:100830002878696800EB4002401CC0B201EBC2019D
:100840002870AA78904200D12E700A784868012A50
:100850002BD1027C4ABB8A684260CA6882600A69FE
:10086000C26049698161F97801B146604368BA683C
:10087000DFF854C0991A21F07F41614502D28268A5
:10088000114406E0D11A826821F07F418A4202D9E0
:10089000511A016000E00660466001218660017423
:1008A000C66100F08FFD002CBED12878697888429F
:1008B000BED17968414502D00120BDE8F081002019
:1008C000FBE700005C210020FFFF7F00A0B0FFF7E6
:1008D0007BFC0023454A05211846FFF727FA08B19B
:1008E000FFF706FA40F2666201214148FFF7B6F9C8
:1008F00008B1FFF7FDF9FFF729FC9DF808003DA1BD
:1009000020F00F00401C20F0F00010308DF808009F
:10091000032202A87CDF08B1FFF7EAF90024009463
:100920005020ADF80000A0200194ADF80200ADF811
:1009300004404FF4C870ADF8060068467ADF08B18D
:10094000FFF7D6F96FF0030077DF2B4800902748B8
:100950006946C830FFF796FB08B1FFF7C9F9274889
:100960003C2100681E902148C830807C8DF87A00B8
:100970006846FEF77AFD02208DF8000001258DF80B
:10098000025006208DF803003C210FA8FEF76DFDF4
:100990001EA81490ADF84C500FA96846FFF790FAC6
:1009A00008B1FFF7A5F91C216846FEF75EFD4FF47C
:1009B0002020CDE900408010029003208DF80C002B
:1009C0000F4805900F480690ADF80E408DF8104086
:1009D0006846FFF7A9FA08B1FFF78AF9FFF7F5F8BB
:1009E0003EDF0028FCD0FFF783F9F9E794210020CF
:1009F0002C21002054776F005F070200801802004E
:100A0000A9100200D504020070B5144682880E4673
:100A100005462088111D0144921C994201D8FE2AE6
:100A200001D90C2070BD521C32542088FF21401C7B
:100A300080B2208031542088401C80B220808119EF
:100A4000288800F068FE2188084480B22080AA88A7
:100A500042B1A96841B13044FEF7EEFC2088A98874
:100A600008442080002070BD072070BDF8B50E46F8
:100A7000017814460546012901D1687830B12088F3
:100A8000821C9A422DD8012902D006E00720F8BD29
:100A900069780144891C994223D8181A801E87B2AC
:100AA000ADF800702188B01C084469467DDF00283D
:100AB000EDD12878022805D1BDF80010B94201D83F
:100AC00009210AE00821012805D16878B84202D836
:100AD000ADF8000001E0ADF80070BDF80000FE28A0
:100AE00001D90C20F8BD2288401CB0542088401C3D
:100AF00080B2208031542088401C2080BDF8001036
:100B0000084420800020F8BDC20800F0070301203F
:100B1000895C98400840704700F1804000680028D8
:100B200000D00120704708B500F18040002101602D
:100B30000068009008BD000000283ED01F49204AF0
:100B4000096800BF00BF00BF00BF00BF00BF00BFFB
:100B500000BF91422FD000BF00BF00BF00BF00BF49
:100B600000BF00BF00BF00BF00BF00BF00BF00BF8D
:100B700000BF00BF00BF00BF00BF00BF00BF00BF7D
:100B800000BF00BF00BF00BF00BF00BF00BF00BF6D
:100B900000BF00BF00BF00BF00BF00BF00BF00BF5D
:100BA00000BF00BF00BF00BF00BF00BF00BF00BF4D
:100BB00000BF00BF00BF401EC3D17047902100207E
:100BC0000024F40070B50F4C0025207808B185256D
:100BD00016E00021A16061602161E1604FF0E0203A
:100BE000D0F80001012610F0010F03D107210020E9
:100BF00000F029F800F09AFB08B903480660267057
:100C0000284670BDB42200201805004038B50020E9
:100C10008DF800006846FFF715F9074C207808B9F1
:100C2000FFF7D0FFE068401CE0600120A0709DF855
:100C30000000FFF72BF938BDB4220020002801D1B5
:100C4000FFF79ABB70474907090E002806DA00F043
:100C50000F0202F1E02282F8141D03E000F1E0220D
:100C600082F8001400F01F02012191404009800029
:100C700000F1E020C0F88012C0F8001170470000B9
:100C800010B5044600F01EFA28B12046BDE8104019
:100C9000002100F02DB9204600F020FA00280FD0E6
:100CA0002046FFF761FB074A02EB8001D1F81035BF
:100CB00023F00103C1F8103501218140C2F8081367
:100CC00010BD0000006000402DE9F0418846054657
:100CD00000F0F8F9234E002828461AD0FFF744FB0D
:100CE000304490F848008009032802D001280ED033
:100CF00007E04FF0A040D0F81005E84010F0010FD9
:100D000005D003212846BDE8F04100F0F1B80221EA
:100D1000F8E700F0E3F9002822D02846FFF724FB8B
:100D200004464FF4807000EB84000F4F81B207EB54
:100D30008400D0F8102542F00102C0F810250846C2
:100D400000F006F9B8F1000F0AD02846FFF70CFBB7
:100D500056F82000002803D00120A040C7F8040363
:100D6000BDE8F081C8220020006000402DE9FC4170
:100D7000DFF8A480044608EB0400002790F9300057
:100D80001346C0170E46401C01D0082741E0F278F8
:100D900019462046FFF7C4FA0546401C38D0B07803
:100DA00050B14FF0A04000EB8400D0F8001721F0C4
:100DB0000201C0F8001707E0002173782046009177
:100DC0000A46019100F082F8F078C0B113483178FA
:100DD00000EB8500D0F81025114B1A40C0F8102503
:100DE0004FF4F8524FF4403302EA042203EA01417F
:100DF0000A43D0F810150A43C0F8102509E008EBA3
:100E00000500327810F8481F41EA8211017000E0B5
:100E100004273846BDE8FC81C8220020006000405D
:100E2000FFE0FCFF4FF0A041D1F81015C14011F0D8
:100E3000010000D00120704770B5144D95F85400A2
:100E400008B1082070BD0020411E2A18401CC0B205
:100E500082F830102028F8D300242046FFF752FAF9
:100E6000641CE4B20C2CF8D307210620FFF7EBFE3C
:100E70004FF4BE7000F06CF805494FF00040C1F827
:100E80000403012085F85400002070BDC822002012
:100E900000600040034890F85400002800D0012072
:100EA00070470000C822002070B541EA4201DDE928
:100EB00004564FF0A04441EA830141EA052104EBC6
:100EC000800041EA0641C0F8001770BD70B541EAE4
:100ED0004201DDE904564FF0A04441EA830141EAB2
:100EE000052104EB800041EA0641C0F8001770BDFF
:100EF0004FF0A04202EB8000D0F8002722F44032ED
:100F0000C0F80027D0F8002742EA0141C0F80017D6
:100F1000704701224FF0A043824011B1C3F8082569
:100F20007047C3F80C25704718B5084B6C46014450
:100F30001B68009306E000BF54F82030D3F810354A
:100F4000401C08C28142F7D818BD0000A418020056
:100F5000034908B50844002101600068009008BDFD
:100F60000060004002494058012800D0002070472E
:100F7000006000404058002800D00120704708B5AC
:100F8000002242504058009008BDD0F804030840A9
:100F900000D0012070474058002800D00120704741
:100FA00008B5002242504058009008BD70B53D4D34
:100FB000044600882E8888B03B2841D013DC0228E4
:100FC00042D010281BD0112824D0132861D100232F
:100FD0001A46852130467FDF00285AD008B0BDE888
:100FE0007040FEF785BE512832D0522822D05528B5
:100FF00053D056284DD1A088132176DFECE701208D
:10100000FFF7DAF80020FFF7CFF8A0882880FEF776
:1010100013FEE1E70120FFF7C7F84FF6FF702880C5
:10102000FEF7F2FD08B1FEF763FE08B0BDE87040C0
:10103000FEF7CBBD00231A4619463046A9DFCBE7A1
:10104000A088132176DFC7E7A088002167DFC3E708
:101050001022A11D04A8FEF7EFF99DF81010002939
:1010600017D09DF81800042803D0062801D00528C1
:101070000FD102290FD001208DF800004FF4C1706C
:10108000ADF80400A0886946A8DF002801D0FEF76B
:101090002FFE08B070BD0220EEE7A0881721ADDF5B
:1010A0009AE70000282100200078002807D1044892
:1010B0003B21008876DF002801D0FEF719BE70477B
:1010C000282100200449084490F93000082801DB59
:1010D0000120704700207047C822002004490844BE
:1010E00090F93000082801D2012070470020704795
:1010F000C822002070B5012670044FF0E0210025C1
:10110000C1F88001084C4010C4F84803C4F8080333
:1011100066602F20FFF710FDA660044C2F20A5600D
:10112000FFF70AFDA57070BD001001405C21002092
:1011300070B50546C87D0C4600284FF484712846DA
:101140000AD0FFF71CFFD5F81805627EE1688854C5
:10115000607E401C607670BDFFF711FFD5F8180562
:1011600070BD1FB501238DF800308DF80810019275
:10117000D0E90012684690471FBD000010B5044634
:10118000FEF750FC40B1002C09DA04F00F0000F12A
:10119000E02090F8140D06E042F2010010BD04F1C9
:1011A000E02090F800044109082914D299B10129DE
:1011B00011D004290FD005290DD00B4801228168D8
:1011C00061B1610950F8213004F01F04A2401343BB
:1011D00040F8213005E042F2020010BD2046FEF743
:1011E0003CFA002010BD0000602300202DE9F041F2
:1011F0000746806A14468846C8B3002531E000BF20
:10120000B96A05EB450001EB8006B088801CFE281A
:1012100002D90C20BDE8F0812288401C08F80200A9
:1012200020881622401C80B2208008F800202088E8
:10123000401C80B2208000EB0801308800F06BFA7F
:101240002188084480B22080B28842B1B16871B16F
:101250004044FEF7F1F82088B188084420806D1CD6
:10126000EDB297F82C00A842CAD80020D2E7FFE7D9
:101270000720CFE718B10349C860002070470E204F
:10128000704700007C2100201CB5034901910091AA
:10129000694660DF1CBD00002821002070B50E46A5
:1012A000054614461C211046FEF7DFF80120208079
:1012B0000021A16121752672657205B1A07200201E
:1012C00070BDFEF703BD00002DE9F041074619B1DE
:1012D00088074FF0000402D00720BDE8F081114DCF
:1012E0004FF0E0200126A9606A806B60D0F8000111
:1012F00010F0010F03D034460020FEF798F90A4998
:10130000384610DF070005D014B10020FEF7A5F91C
:101310003846E2E72E70FFF779FCBDE8F041162071
:10132000FFF72CBF7C210020C31202000148007887
:10133000704700007C2100202DE9F84F204C00254B
:101340006846D4E901B6FFF725F98046FFF70EFAA3
:101350000746A946B8F1000F25D00023009ACC46D5
:10136000606819E007680146974202D9BA1A02601C
:1013700014E0C1F800C0D1F80C80D21BC8693B440E
:101380008A46B8F1000F07D0F71827F07F47C1E968
:101390000178CAF81C500D460028E3D16060284649
:1013A000FFF738FA04E02846FFF734FA00B917B11E
:1013B0005846FEF7F5FF84F80390BDE8F88F00006B
:1013C0005C2100200D4B10B5596831B102680C68E2
:1013D000A24204D8A21A0A60C161586010BD0B462F
:1013E00003E00B46C969121B21B10C689442F8D383
:1013F000A41A0C600260C161D86110BD5C2100209C
:101400007CB5064600240D468DF800406846FEF780
:1014100019FD01A800F0B4F970B1057009494660E2
:101420009DF8040048709DF80000FEF72FFD142081
:10143000FEF71EF920467CBD04249DF80000FEF74F
:1014400025FDF7E76C2100202DE9F0411D4D6C686A
:10145000002C35D01C4800270068A968B846401AFF
:1014600020F07F462068B04215D82246361A07443D
:10147000E469107C68B182F81080EB6833B1D2E97E
:101480000501984728B1FEF733FC02E0D2E90510C8
:101490008847002CE6D129786878814206D1401C23
:1014A000C0B26870022801D185F8018005486978CA
:1014B000183040F82170BDE8F0411420FEF7D8B88C
:1014C000BDE8F0815C2100200415014070B50C4698
:1014D00005464FF48E71FFF752FDA18AA068415C6A
:1014E000A08A401CA082C5F81C1570BD1FB5002243
:1014F0008DF800208DF80810816801918275D0E97F
:101500000012684690471FBD2DE9FF470C4605466F
:101510004FF40071FFF739FD01274FF401780026E1
:1015200018B34FF4927949462846FFF723FDE0B1FE
:1015300049462846FFF723FDC5F80883A07E00B979
:101540006F6002208DF80000D5F88004C5F8800493
:101550000390E07D8DF80800E0680190E67526763E
:10156000D4E900126846904727E004212846FFF797
:101570000CFD10B34FF484712846FFF7FBFCE0B17B
:1015800021462846FFF7D4FDE07D617E884214D1D4
:10159000207E38B1617EE268E0752069E0602676E1
:1015A000667607E0A07E00B96F60C5F80883E6752F
:1015B000617EE2682046FFF7D4FD4FF48E78414605
:1015C0002846FFF7D7FC88B1A08AA17D884204D2C3
:1015D00021462846FFF77AFF08E041462846FFF7F4
:1015E000CEFCA17D11B12046FFF780FF4FF4A27819
:1015F00041462846FFF7BEFC002812D04146284647
:10160000FFF7BDFCA07E00B12F60E07D002808D070
:10161000E675617EE26804B02046BDE8F047FFF75A
:10162000A0BDBDE8FF872DE9FF410C464FF492773E
:1016300005463946FFF7AFFC0026C0B139462846BB
:10164000FFF7AEFC02208DF80000D5F88004C5F845
:1016500080040390D5F83C058DF80800E0680190FF
:10166000E6752676D4E900126846904724E04FF4E8
:10167000887739462846FFF78EFCE8B13946284678
:10168000FFF78EFCD5F83C05C1B2E07D884213D14E
:10169000207E60B1E268D5F8000220F02000C5F895
:1016A0000002207EE0752069E060267601E0E675A4
:1016B000E2682046FFF755FD4FF4A27739462846E9
:1016C000FFF769FC68B139462846FFF769FCE07D01
:1016D00038B1E675D5F83C05E268C1B22046FFF79F
:1016E00040FD4FF4907631462846FFF754FC002821
:1016F0000FD031462846FFF753FCA07D002808D0C4
:10170000D5F84C0504B0C1B22046BDE8F041FFF762
:10171000EDBEBDE8FF810870000A487002207047E6
:1017200038B515494888A0F57F42FF3A23D04A785A
:10173000124C521CD2B24A70237B93420AD3091D29
:1017400075DF002817D0A169002914D001B0BDE8C9
:101750003040084700254D70217C29B13B2176DFC0
:1017600010B1A16901B188476169002903D08DF8E2
:1017700000506846884738BD342100209822002058
:101780000A4A10B553789478591CC9B28C4200D1DA
:10179000002114788C4201D1002010BD01705068E6
:1017A00003EB430100EBC10010BD00006C210020E1
:1017B0002DE9FC411646DDE90854CDE900541F46E9
:1017C0008046022200F00CF8002807D1CDE9005431
:1017D0003B4610223146404600F002F8BDE8FC814D
:1017E0002DE9FC5F0026DDE90C4B994692468E46BA
:1017F00080462788354630E0D8F80400002200EB08
:10180000850069460068019001A865DF002830D195
:101810009DF8000050451FD10EB1002100E00221CB
:10182000228808441118594522D846B9521C90B252
:10183000208009F800E02088401C208001262188B3
:1018400001A801EB0902694665DF002811D1208853
:101850009DF80010084420806D1CB8F80000A842D4
:10186000CADC56B12088C01B401E80B2FF2802D9B6
:101870000C20BDE8FC9F09F807000020F9E70000F4
:101880002315000001000007111213140D0E0F1094
:101890007822002023D1BCEA5F782315DEEF1212F4
:1018A0000000000000000050402300200300000062
:1018B000D0180200282100206C00000004FA01006A
:1018C0003C19020094210020DC21000014FA0100E0
:1018D000FFFF00000D000300D9020200000000001D
:1018E00000000000000000000000000000000000F8
:1018F00000000000000000000000000000000000E8
:1019000000000000000000000000000000000000D7
:1019100000000000000000000000000000000000C7
:1019200000000000000000000000000000000000B7
:0C19300000000000000000000090D00348
:040000050001F40101
:00000001FF
