:020000040001F9
:10B0000050790020D5B00100EFB00100F1B001008F
:10B010000000000000000000000000000000000030
:10B02000000000000000000000000000F3B001007C
:10B030000000000000000000F5B00100F7B00100C2
:10B0400069B60100F9B0010015B80100F9B00100BE
:10B05000F9B0010000000000ADB40100F9B001003A
:10B06000F9B00100F9B00100F9B00100F9B0010038
:10B07000F9B00100F9B00100F9B00100F9B0010028
:10B08000F9B00100BDB60100F9B00100F9B001004E
:10B090004DB70100F9B0010055B70100F9B001004A
:10B0A000F9B00100F9B0010000000000000000004C
:10B0B0000000000000000000000000000000000090
:10B0C0000348854600F0BEF90048004741D2010020
:10B0D000507900200321094802680A4302600848A9
:10B0E00002680A4302600748804707480047FEE7B6
:10B0F000FEE7FEE7FEE7FEE7FEE70000240500406E
:10B100005405004075B70100C1B0010030B50B46D1
:10B11000014600202022012409E00D46D5409D4231
:10B1200005D31D469540491B2546954040191546B7
:10B13000521E002DF1DC30BD00487047C0F0010008
:10B1400003460B439B0703D009E008C9121F08C040
:10B15000042AFAD203E00B780370401C491C521EEB
:10B16000F9D27047D2B201E00270401C491EFBD2F6
:10B1700070470022F6E710B513460A460446194602
:10B18000FFF7F0FF204610BD421C0178401C00294B
:10B19000FBD1801A704730B504460020034600E01A
:10B1A0005B1C934203D2E05CCD5C401BF8D030BD09
:10B1B00003460A780270401C491C002AF9D118463F
:10B1C0007047F8B502464A40D40F42004B0052087F
:10B1D0005B089A4202D20246084611464A0023D032
:10B1E000C30D4A00DDB2120EAD1A202D35DA490228
:10B1F0000126490AF6058A19002C00D05242202166
:10B200004F1B1146B9402A411018C20D9A4221D055
:10B21000002C17D0012D08DCDA05801AD20F801916
:10B22000D207DBB200F0D4F8F8BDDA05801A0123AA
:10B2300040001B06C01880185A428018CA0F1043DD
:10B24000490007E04908C2071143DA05801A80194E
:10B250004008801800F0B4F8F8BD61000122511ACE
:10B26000001BF7E70122D2075140AAE70122D207CB
:10B270005040A6E770B502464A40D50F40004A004C
:10B28000ED0740085208002814D0002A12D0C40D3F
:10B29000D30D41020120C0055202490A520AE41AA4
:10B2A000091812187D34914201D3641C00E0490052
:10B2B000002C01DA002070BD0023914201D3891ACD
:10B2C0000343400849000028F7D100290AD09142E1
:10B2D00002D10121C90705E0914201D2012101E01B
:10B2E0000121C943E005C018401900F069F870BD9C
:10B2F000C217C10F504010B54018CA07962300214D
:10B3000000F066F810BDC20F410040020123400A60
:10B31000DB05D207090EC0187F2901DA002070472B
:10B32000962903DC9623591AC84001E096398840D3
:10B33000002AF4D040427047410040020122400AF6
:10B34000D205090E80187F2901DA0020704796295E
:10B3500003DC9622511AC8407047963988407047DE
:10B36000F0B51FB40646002082B005464024019186
:10B3700000901BE0019922460F46304600F084F809
:10B38000049A059B801A994110D31046194622460B
:10B3900000F06AF8361A8F410197224601200021F9
:10B3A000009F00F061F838184D4100902046641E5F
:10B3B0000028DFDC019B00982946324607B0F0BD2B
:10B3C000002904DA401C490001D1400840007047C0
:10B3D00070B40024050C05D11024000402D100290A
:10B3E00021D01124050E01D100020834050F01D12E
:10B3F0000001241D850F01D18000A41C002801DB61
:10B400004000641C002908D020252E1B0D46F54065
:10B41000A14000D001212943084301061B1B000A5B
:10B42000DB1D02D5002070BC7047DB0518188018A2
:10B430000029F8DA401C4900F5D170BC40084000F2
:10B4400070470000064C0125064E05E0E36807CC76
:10B450002B430C3C98471034B442F7D3FFF734FE2B
:10B4600004F3010024F3010010B5202A04DB014697
:10B47000203A9140002010BD914020239C1A0346A1
:10B48000E3401943904010BD10B5202A04DB084664
:10B49000203AD040002110BD0B46D340D04020249C
:10B4A000A21A91400843194610BD0000F0B50024CF
:10B4B000FF268BB00136012527460694304602F060
:10B4C00057FA002807D054484068284203D0304635
:10B4D00002F046FA2C43361D6D007F1CB6B2042FD5
:10B4E000ECD3FF257D35284602F042FA002809D02A
:10B4F000284602F035FA6807044306AA0121002015
:10B5000002F01AFA454D200714D0012700262742E1
:10B510000CD04348B200111808690969C004C00E74
:10B520008903AA58890F002A00D090477F00761C13
:10B53000042EECD3002C6DDA00200890401E63E04E
:10B54000281940300778B906890E0091002141562C
:10B55000491C49D009A9009801F0E0FE002843D019
:10B56000B8090190009801F027FB80002F5801983E
:10B57000002F02D0032802D00DE0032834D1009818
:10B5800008ABC20841079446985C490F01228A40E3
:10B59000104362469854009805210907800040181E
:10B5A000072109024018006806A98003800F029055
:10B5B000009801F0B3FE0028029802D0022802D0C1
:10B5C00012E0032810D10198032808D1029802281C
:10B5D0001ED00221009802F091F9761CF6B2002FDD
:10B5E00002D001990098B847641C042CA8D3002EFF
:10B5F00010D06A460121002002F09EF906990098B9
:10B60000884207D00690089800263446099097E7AC
:10B610000321DFE70BB0F0BD006300402C69002080
:10B62000006500408307FF22DB0E9A408907090E60
:10B63000994000280BDA0007000F083883080848F3
:10B640009B001818C36993430B43C3617047830879
:10B6500004489B001B181868904308431860704703
:10B6600000ED00E000E400E0F8B5FF20013001F05B
:10B670005DFE002401250E4E0E4F002807D00E4817
:10B6800004600120B0607D70002001F0BBFAFF2053
:10B69000053001F04BFE002808D00748001D04606B
:10B6A0000220B060BD70012001F0ACFAF8BD0000CE
:10B6B00000030040186900200001004010B5064951
:10B6C0000020086048608860C8600349403908600D
:10B6D000486003F0FDFA10BD4011014010B5034869
:10B6E0000078002801D100F09FF810BDD87000202C
:10B6F00070B50E4618214843134914464518E86AA8
:10B700001835002804D001280FD0022805D113E0F5
:10B71000284600F0BFF8A04201D2002411E02246E2
:10B720003146284600F0F1F80BE0284600F0B2F868
:10B73000A042F4D20446F2E73146284600F0B5F8BC
:10B740000446204670BD0000D870002010B503F0FC
:10B7500031FA10BD10B506484068002805D0804772
:10B76000002801D000F018FC10BD01F0E1FB10BD75
:10B77000D850002010B501F03DFC002805D01F492D
:10B780001D484860C8131E4988611E48018CC9B213
:10B7900001290BD1828C120708D1028D1206120FDB
:10B7A000042A03D1828D1206120F0AD0012921D159
:10B7B000818C09071ED1018D0906090F0A2904D0C1
:10B7C00007E0114A01219160F5E7828D1206120F00
:10B7D00005D00D290ED1808D0006000F0AD10B482F
:10B7E0000168012904D00A49016001680129FCD1DE
:10B7F000C021416110BD0000DFFF07C0000500400F
:10B80000006C0040C00F00F00006004000EC064055
:10B810007593000010B50249024803F003FB10BD08
:10B82000746900200020004010B5124C02202061F5
:10B83000606111A0A0611348E06101204002206214
:10B840000020A06260620CA1A1642146E062103970
:10B85000E16410212165A0656065E0650AA1E01D35
:10B86000FFF7A6FC09A12046FFF7A2FC2020A0714B
:10B8700010BD0000D87000205465726D696E616C57
:10B8800000000000C86E0020525454005345474742
:10B89000455200000269C1688A4203D88068401A94
:10B8A000801800E0501A401E7047F7B5064682B077
:10B8B00000200090F46817463069A04201D9051BAA
:10B8C00002E0B168201A0D1AB0686D1E001BA84274
:10B8D00000D80546BD4200D33D4670682A4600198F
:10B8E0000399FFF72DFC00987F1B401900900398E7
:10B8F000641940190390B068A04200D10024F4609C
:10B90000002FD9D1009805B0F0BDF7B5C66817462D
:10B9100004468068851B6068BD4206D9801901997C
:10B92000FFF70EFCF019E060FEBD2A468019019970
:10B93000FFF706FC01987E1B411932466068FFF74D
:10B94000FFFBE660FEBD00000FB41CB50246002000
:10B9500007AC00290BD0491E01910092064B6A46A4
:10B960002146069800F034F8009A002111701CBCA2
:10B9700008BC04B01847000045BE010030B474464E
:10B98000641E2578641CAB4200D21D46635D5B00DB
:10B99000E31830BC184702E008C8121F08C1002A8B
:10B9A000FAD170477047002001E001C1121F002A40
:10B9B000FBD17047202804DA01218140034801426D
:10B9C00001D001207047002070470000FC06FFBC3A
:10B9D000FFB591B00F460546002606E025280AD09F
:10B9E000149A139990476D1C761C28780028F5D17D
:10B9F000304615B0F0BD002400940121F34A0294B2
:10BA000000E004436D1C2B780846203B9840104210
:10BA1000F7D128782A280ED0022128780246303A19
:10BA2000092A15D8009A0A235A43303A80180C4341
:10BA30006D1C0090F1E701CF0090002805DA01208D
:10BA400040030443009840420090022004436D1CD0
:10BA500028782E2815D10420044368786D1C2A28E4
:10BA60000AD101CF6D1C02900BE002990A225143CA
:10BA7000303940186D1C0290287801463039092968
:10BA8000F3D928786C2810D006DC4C281AD0682806
:10BA90000ED06A2817D104E0742813D07A2812D166
:10BAA00010E00120400504430CE00121090501E0FC
:10BAB000032109050C436978814203D10120000567
:10BAC00024186D1C6D1C287803906E281ED00CDC89
:10BAD000632831D004DC00288AD0582811D1B2E084
:10BAE00064287BD069280CD178E073282DD004DC41
:10BAF0006F2870D0702804D1A7E075286CD0782802
:10BB00006BD0149A13999047761C62E06002400F44
:10BB1000022807D003280AD0042838680AD0066013
:10BB20003F1D56E03868F11706604160F8E7386855
:10BB30000680F5E70670F3E7387869460874002058
:10BB4000487404A80390012003E0386803900020A3
:10BB5000C0433F1D61070FD5002101E00199491C39
:10BB6000029A0191914213DA8142F7DB019A03991B
:10BB7000895C0029F2D10BE0002101E00199491C08
:10BB800001918142FADB019A0399895C0029F5D180
:10BB900001990098139A401A00902146149B00F0D6
:10BBA0003BF901998019461807E00398039900783A
:10BBB000491C0391149A139990470198401E0190D3
:10BBC000401CF2D12146149B139A009800F014F9FE
:10BBD00086196D1C09E741E033E034E00A200021BA
:10BBE000049005916002410F022905D001CFC217D0
:10BBF0009446032905D007E0FF1DFF08FF0003CF8F
:10BC000006E000B2C2179446042902D140B2C1171F
:10BC10008C4600226146944506DA0A4600214042DD
:10BC200091418C462D2102E0210504D52B216A4645
:10BC30001176012103E0E10701D02021F7E701910E
:10BC400054E00A200BE0102009E0102004900021AD
:10BC50000420044308200591029003E008200021FD
:10BC6000059104906002410F022905D001CF002206
:10BC70009446032906D006E0FF1DFF08FF0003CF0E
:10BC80008C4603E080B2042900D1C0B200210191AA
:10BC900021072BD50399702906D0049A1021059B02
:10BCA0004A401A4305D00EE040216A461176012130
:10BCB00008E06146014306D030216A4611760399B7
:10BCC000517602210191049A0821059B4A401A43AA
:10BCD0000CD16146014301D1610707D530216A4685
:10BCE0001176012101910299491E02910399582967
:10BCF00004D037A103910FA90F910DE039A1F9E705
:10BD00006146059B049AFFF72BFB039B8C469B5CCB
:10BD10000F9A521E0F92137061460143F0D10F9893
:10BD200007A9081A20300390600704D501200004F9
:10BD30008443029801E0012002900399884201DDCA
:10BD4000401A00E00020411802900198091800985C
:10BD5000401A0090E00306D42146149B139A0098E1
:10BD600000F05AF886190020049008E006A9085C43
:10BD7000149A139990470498401C761C04900199DA
:10BD80008842F3DBE0030CD52146149B139A0098FC
:10BD900000F042F8861904E0149A30201399904775
:10BDA000761C0299481E02900029F5DC08E00F98E5
:10BDB0000F990078491C0F91149A13999047761C9B
:10BDC0000399481E03900029F1DCFBE609280100D5
:10BDD0003031323334353637383961626364656601
:10BDE00000000000303132333435363738394142C3
:10BDF0004344454600000000F8B5044600251E46B1
:10BE00001746880404D405E039462020B0476D1C4D
:10BE1000641EF9D52846F8BDFFB50446002581B05B
:10BE20001E46C80301D5302700E02027880404D52A
:10BE300005E038460399B0476D1C641EF9D52846C5
:10BE400005B0F0BD4A68002A06D00A68531C0B6092
:10BE500010704868401E4860704770B500230D8818
:10BE60004C680DE0E6187678E15C864206D1E01871
:10BE7000801C491E50601180002070BD5B185B1C47
:10BE80009D42EFD8052070BD70B50024074D05E038
:10BE90006968E000085C01F0DDFA641C28788442DF
:10BEA000F6D30348006800F017F970BD88500020F1
:10BEB000E8EF010070B50024064D06E06968E00077
:10BEC000085C012101F0EAFA641C28788442F5D369
:10BED000002070BD88500020F8B515460C46064677
:10BEE000052A01D20720F8BD01F0B0FB002803D1DC
:10BEF00001F07EFB0028F6D1104900204E600C7046
:10BF0000C8608D6008610E4D0DE0E0006968801921
:10BF1000009181786A46517000780A4A694601F0BA
:10BF200009FB0028DFD12046641EE4B20028ECD1D2
:10BF3000054A0021024800F03BF8F8BD8850002077
:10BF4000E8EF0100E1CE010081CD010009A101204F
:10BF500001F046FF01F08CFE01F090FE0028FBD1BD
:10BF600000BEBFF34F8F0B490948C860BFF34F8F26
:10BF700000BFFDE71B5B306D4150505F4552524F93
:10BF8000523A4552524F523A466174616C0D0A0062
:10BF90000400FA0500ED00E00EB5002102900091CA
:10BFA0006A4601910148FFF7D1FF0EBD0140000034
:10BFB000094B5B68002B07D0002A07D0002805D06A
:10BFC0000068037C002B03D00820704707207047CF
:10BFD0004174426100207047AC500020FFB5074615
:10BFE0009007002581B01E461446002825D1002C5C
:10BFF00023D002F0D7FB3046114EF06030461030AF
:10C000000570457002998170446075603570012437
:10C010000C4875702405046003211420FFF702FB0F
:10C0200009480460094CA76003211120FFF7FAFAC0
:10C030006068B060002005B0F0BD0720FBE700009D
:10C040009C50002080E200E000E100E0001501408B
:10C05000FEB51F4B5B68002B30D000282ED0052981
:10C0600001D20720FEBD4369002B27D0437C012B62
:10C0700026D00027029104460025694616460D7019
:10C08000684600F03DF801A802F060FF002819D0D2
:10C09000012101700F49446049688160029907617C
:10C0A0004661C16068460A49007948706846007870
:10C0B00000F044F802F0C0FD2846FEBD0820FEBD99
:10C0C0000F46D7E768460425007800F037F8F3E715
:10C0D000AC5000200015014010B5084949680029FE
:10C0E0000AD0002808D04169002905D00021017438
:10C0F000022102F0C9FD10BD082010BDAC50002087
:10C1000030B5EFF3108172B6094A54680123002C50
:10C1100004D00370002900D162B630BD5360054BD6
:10C120001D68054C254015601C6000220270F1E777
:10C13000C050002080E100E0FC06FFBC08494A68CE
:10C14000002A0CD000280AD1EFF3108072B60A68DA
:10C15000044B1A6000224A60002800D162B6704782
:10C16000C050002000E100E0F8B5074608680C4622
:10C170000526411C01253602002906D029468140AA
:10C1800019488160206801F0AFFB6068411C02D053
:10C19000002101F0A0FB3968A06989194862607D1F
:10C1A000217D3A6808439119C866386806CC801921
:10C1B0004261C160207B083C012814D1A068411C69
:10C1C00002D0002101F087FBE068411C05D08540CA
:10C1D00005488560E06801F087FB3A68E1689219DC
:10C1E000A06891601061F8BD0005005070B51C2179
:10C1F0004843002509492C4646183119072008569E
:10C20000FFF776F82946FEF7DCFF641CE4B205462A
:10C21000142CF2D30249FFF72DF870BD0065002001
:10C220000000A04110B50349887D497D084002F017
:10C23000D0FB10BDA4650020F0B5044602883A4842
:10C240008DB0014615310191102A09D0112A50D024
:10C250001A2A4AD1217A090901294ED901234DE030
:10C26000027D417D05468A43011D07A802F08EFB31
:10C27000142207A902A8FEF763FF00262A483746C2
:10C28000143008900AE0710002A8081883881D2263
:10C290000097281D089902F039FB761C0298B042DD
:10C2A000F1D8287DA688C043C0B202F053FB1F49D5
:10C2B000884217D040004019868001233246281D4D
:10C2C000019902F096FB01233246281D089902F0DD
:10C2D00090FBA07D02280AD000231349A2881631C2
:10C2E000281D1DE00420FFF757FE0DB0F0BD01230F
:10C2F000F3E70023A288001D12E000230A49054647
:10C30000A2881731001D02F074FB207A0009022870
:10C3100001D9012300E000230349A2881831281D18
:10C3200002F067FBE1E70000A4650020FFFF0000CA
:10C3300070B500280AD00F4D2978002908D004468E
:10C3400002F014FA002805D0002070BD0E2070BD48
:10C35000082070BDE868062809D2074A81008918BC
:10C3600022880A8062884A80401CE860ECE704204A
:10C3700070BD000070500020D8650020002808D053
:10C38000002205490123CA600B708A60486010468C
:10C3900070470E20704700007050002010B5002834
:10C3A00011D000290FD0114A1278002A0BD00A8828
:10C3B000112A11D0302A07D0322A09D0332A02D1CB
:10C3C000091D02F081F810BD091D02F0FFF810BD33
:10C3D000091D01F0F5FF10BD8A8809218901401867
:10C3E000C18B8A42F7D10021C17610BD7050002068
:10C3F00070B50E4600280ED0174A117800290CD0CF
:10C40000D168002909D0092189014418E17E002959
:10C4100005D0112070BD0E2070BD082070BDE683D0
:10C420000021916021770546A1760C48617601884C
:10C430002980408868808AB233460949032001F088
:10C440003FFD2A460121304690DF0028E6D1012039
:10C45000E076002070BD000070500020D8650020FC
:10C460004CF2010070B505468488FFF7E5FE2846CA
:10C4700001F0AEFE082C0ED21320400106496043A5
:10C4800040182946FFF78AFF0349200180394018E8
:10C49000294600F06DF870BD0052002070B50028EC
:10C4A00005D0028811498A4203D1082070BD0E20B0
:10C4B00070BD0F4B4488186814214143401C40074D
:10C4C0000C4D400F186049194C810220C881081D8D
:10C4D000086100248C810120087208714C710A8067
:10C4E000887002F059FC204670BD0000FFFF00007C
:10C4F000805000207868002010B51346002809D02D
:10C500000180002B04D006221946801CFEF718FE7D
:10C51000002010BD0E2010BD30B5134D04002DCDF0
:10C5200085B003956D460DC51CD000291AD008684A
:10C53000002817D000206080A080E080401E20806E
:10C5400008682146A0600C31684663DF002807D1E7
:10C55000217B684681740549018204A8FFF7E8FE43
:10C5600005B030BD0E20FBE7D4EF0100231500001D
:10C570000EB500281DD000291BD00A88112A20D012
:10C58000382A17D0392A14D102888B889A4210D1C0
:10C590008A8983889A420CD10A8A012A09D1022306
:10C5A0006A46137003885380897C117182686946DA
:10C5B00090470EBD008889888842FAD102F0ECFBD2
:10C5C0000EBD028889888A42FAD10021C9430180C0
:10C5D000002141808180C1800EBD000070B500281F
:10C5E00005D00288114B9A4203D1082070BD0E205D
:10C5F00070BD0F4C142223680E4D5A435B1C5B0721
:10C600005B0F23605219C38853810123D381141D0A
:10C610001461002494810224147211710088108026
:10C62000937002F0B9FB002070BD0000FFFF000016
:10C630008050002078680020FEB504460878002865
:10C640003CD188881E4A904238D18879227B90421A
:10C6500034D10122684602704A884280184B00207B
:10C66000DB4312E0122242435218D5890E32ED18F4
:10C6700005D0012D08D112896D462A8104E0158963
:10C680006E46F5805289B280401C0A7A8242E9D80F
:10C6900020880C4988420DD0E08800280AD1A08863
:10C6A000002807D16088002804D10622A01C01A917
:10C6B000FEF746FDA268694620469047FEBD000091
:10C6C00023150000FFFF000000B5154887B0006883
:10C6D000059000234822134905A802F039FA0028E2
:10C6E00001D0FFF759FC6A460021082002F018FA31
:10C6F000002801D0FFF750FC0A20694608806846F0
:10C7000002F0B8F9002801D0FFF746FC064802F015
:10C71000A7F9002801D0FFF73FFC07B000BD0000DB
:10C7200078EF0100F050002065C4010005490B5C62
:10C7300005494A6801209840034693438B601040A6
:10C74000C8607047A0EF01000005005010B5034914
:10C75000085C012101F0E4F810BD0000A0EF010029
:10C7600010B50349085C002101F0DAF810BD0000A3
:10C77000A0EF01000549095C05484068C840C007B2
:10C78000C00F00D00120012148407047A0EF0100F8
:10C79000000500507CB50024074E2546305D01227F
:10C7A000009500231146019501F050F8641C042CFB
:10C7B000F4D300F003F87CBDA0EF010010B5002415
:10C7C0002046FFF7C3FF641C042CF9D310BD10B53D
:10C7D00000242046FFF7C4FF641C042CF9D310BDCD
:10C7E0000246002010B5C043054B00215C5C94421A
:10C7F00001D1084610BD491C0429F7D310BD000023
:10C80000A4EF0100F3B581B00D460198FFF7E8FFF2
:10C810000446042813D21D481D4F1E4E002D27D05C
:10C82000012D0DD0022D0AD160002018C0194578C5
:10C83000002D04D0F168002901D028468847FEBDAC
:10C84000610061187D5CCF19797800290BD071687F
:10C850000A2251430F4A8068921CFFF7F9FB002817
:10C8600001D10198B0700B48B97810300155DFE75D
:10C870008068FFF731FC0748610061181030C91962
:10C88000005D8D78A842D3D0FEBD0000A8EF010066
:10C89000786500205C50002010B5054A0146127AE8
:10C8A0000020D20702D0084600F004F810BD0000B6
:10C8B0005C500020F8B55D4C0546607800260028E5
:10C8C00003D000206070FFF779FF0120584F2B0044
:10C8D000FFF754F818970D0D2E3D4A5F64686F6896
:10C8E0006FA97777777777979A9DA0A9A995002068
:10C8F000FFF740FF00280AD00020FFF727FF022D96
:10C9000002D1E120C0000BE07D20400108E00020C2
:10C91000FFF726FF022D01D1C82001E0FF20913052
:10C9200025706421FEF7F2FB6168414300222BE091
:10C930000020FFF71FFF002805D00020FFF706FFAB
:10C9400019204001ECE70020FFF70AFFE4E7002090
:10C95000FFF710FF002803D00020FFF7F7FED3E712
:10C960000020FFF7FDFED9E70020FFF703FF0028B6
:10C9700003D00020FFF7EAFE02E00020FFF7F0FE00
:10C9800025706068410000223868FFF761FB0646A9
:10C9900035E00020FFF7CAFE257007E000203FE0E9
:10C9A00025702CE060700120FFF7C0FE0022616856
:10C9B000EAE760700120FFF7B9FE60688100411866
:10C9C000E1E77868FFF788FB06461120401B01D09D
:10C9D000002E03D00220FFF7B9FE10E001280BD98A
:10C9E000C82148436421FEF791FB6168002241435E
:10C9F0007868FFF72DFB06460220FFF7B1FE3046B0
:10CA0000F8BDFFF7DBFECBE7FFF7D8FEC6E7FFF781
:10CA1000D5FE04E0FFF7D2FE0020FFF7A1FE0120C3
:10CA2000FFF79EFEBCE7FFF7D2FEB9E75C5000209F
:10CA3000A8EF0100002901DA0020704702685118B0
:10CA40000160012070470000F8B50F46851C0020EA
:10CA50006946087001266846FFF752FB194C2068AA
:10CA6000386003CC2268411A531AA91C5B1C083C8D
:10CA700099421ED9022B1AD31349144B09881B68FB
:10CA800089051040890D9B02800019430019C1607F
:10CA90002068401C20600E48C0688047A26821685A
:10CAA000114089000919C8602068401C20600026D8
:10CAB00001E04019206068460078FFF73FFB3046F0
:10CAC000F8BD0000B06A002018F00100D45000202A
:10CAD000B06E0020034803C8814201D10120704795
:10CAE00000207047B06A0020F8B50D46112802D02A
:10CAF000FFF752FAF8BD0B4E0B4F002420018019AE
:10CB00002946FFF76BFD002803D0B84201D0082862
:10CB1000F0D1641C082CF1D32A4604A1032001F0B3
:10CB200093F9F8BD80510020023000001B5B306D8E
:10CB30004150503A494E464F3A4C42532077726921
:10CB40007465204C45442073746174652025640D20
:10CB50000A0000000022D243830004490428CA507E
:10CB600002D3081820300277704700002C6900209B
:10CB7000F0B50025ED43002A02D00023042601E091
:10CB8000042308260B4C04E09F00E7597F1C04D0C7
:10CB90005B1CB342F8D32846F0BD26185DB22036A0
:10CBA00035709E00A151002AF5D1E1182031087797
:10CBB000F1E700002C6900200249091820200856DE
:10CBC000704700002C69002038B50B460921890107
:10CBD00041188A7E6424624310184A7E002A08D0D5
:10CBE000521ED2B212214A431218518A6A46491C77
:10CBF00001E0C1886A4611800089508011461846BC
:10CC000092DF38BD70B5084C050009D0103421689A
:10CC1000002907D008682060496828468847F6E759
:10CC20000834F4E770BD000018690020F8B5234807
:10CC3000416800293ED00E6821494C688768807899
:10CC4000E11B0D022D0AED1C002814D101201D4A04
:10CC5000000450601B4A403A50601B494000086085
:10CC60001A4908601A49012008602F2000F066FB6D
:10CC7000124901208870B54200D23546E8190002F9
:10CC80000F4B000A403318600D4A5168001B091B06
:10CC90000902090A0002000AC91C814209D9506828
:10CCA00018602F2000F04AFB01200749400480391A
:10CCB0000860F8BD01F076FDF8BD00009C50002032
:10CCC000001501404013014080E200E000E100E077
:10CCD0000010014010B54288044613460549032060
:10CCE00001F0EEF860880449000140182146FFF782
:10CCF000A3FC10BDC4F0010080510020F7B5074629
:10CD0000092080013E18B07E64214843C519747E15
:10CD10001220604341192A79601C0A3182B0904286
:10CD200026D101AB0022384600F042F9002822D07B
:10CD300010E0401EA04201D1002003E01220604319
:10CD400040191C300246009001AB384600F030F923
:10CD5000002807D003980021017001A9049893DFEF
:10CD600005B0F0BD707E0099401C641C7076E4B282
:10CD70002879A042DDD80398012101700020EFE757
:10CD8000F8B500260124154D23E06968F000471826
:10CD9000387821462A698140114218D08A432A6195
:10CDA00000F01CFC3A782146EB689140194003469C
:10CDB000934099420BD17978012901D0012100E0FB
:10CDC00000217B684140002B01D010469847761C1B
:10CDD000F6B228788642D8D3F8BD000088500020EB
:10CDE000F7B50921890141181446897E642251430F
:10CDF0000F18384601F0BAFC060033D01A4A906882
:10CE000006282FD2214614466C225043174D642227
:10CE1000401941803946001DFEF792F9019800271C
:10CE2000002804D0A0686C2148432F5404E0A06877
:10CE300002216C2250432954A0686C2141434919B6
:10CE4000401C8E66A060E16888420BD1002605E098
:10CE50006C2070434019816E8847761CE0688642DA
:10CE6000F6D3A760FEBD000070500020F0650020E2
:10CE700030B50D460921890141181446897E642286
:10CE800051439BB0081801F071FC030005D06846BF
:10CE9000448001210170019598471BB030BD00000E
:10CEA00010B50E4900230A784C78A24212D0521CC9
:10CEB000D2B20A70022A00D10B700A78074B920096
:10CEC00018339A580260886810180002000A8860B7
:10CED000012010BD0360002010BD00009C50002008
:10CEE000F8B50746104E0125BD403068FFF7F4F84D
:10CEF00000280DD10D4C2069284207D1384600F09A
:10CF00006DFB0028E06804D0284303E0A8432061BB
:10CF1000F8BDA843E0602069002228432061A16891
:10CF20003068FFF795F8F8BDE8EF01008850002061
:10CF3000F8B51E4C2078002836D0E068002600287E
:10CF40000CD00025607800282ED1684652DF0528D5
:10CF500006D0002806D0FFF71FF80BE00125F1E707
:10CF6000012607E0009800F03FFA2169002901D06E
:10CF700000988847002D13D16078002814D160886C
:10CF800069460880A06861DF052804D0002804D025
:10CF9000FFF702F804E0012502E0E168A068884795
:10CFA000002ECFD0002DE5D0F8BD0000D8500020D5
:10CFB00030B50989002A05D0D088491C814213D197
:10CFC000002030BD092292018218947E64256C43B2
:10CFD00024182489A142F3D0491C1980917E64222F
:10CFE00051430818008902E01980D088401E5880FB
:10CFF000012030BD1048018CC9B2012917D1818CA4
:10D00000090714D1018D09060A0F03D1828D12067A
:10D01000120F0ED0090F012903D1828D1206120FB3
:10D0200007D0032903D1808D0006000F01D0002016
:10D030007047012070470000C00F00F070B5054632
:10D0400008780C4601280ED002280BD1237962887B
:10D0500010A1032000F034FF2079002816D0022010
:10D06000FFF77EFB70BD4A881A49032000F0ECFEF2
:10D07000FEF720FF002801D0FEF78EFF2846FFF7BD
:10D080000DFA0028EED0FEF787FF70BD0220FFF7F3
:10D090005DFB70BD1B5B306D4150503A494E464FB1
:10D0A0003A4C696E6B20307825782C204275747468
:10D0B0006F6E207374617465206368616E67656468
:10D0C000206F6E207065657220746F20307825782F
:10D0D0000D0A00009CF10100F0B5284C21461039E2
:10D0E00048688B68227886469C46CF78667836E01A
:10D0F000182353436168521CC918A378D2B29342D3
:10D1000000D100220B78022B02D0032B27D123E081
:10D1100003464D68194603E0A94204D00B46C9698D
:10D1200000291CD0F8E7002919D08B4208D1C0692A
:10D13000002805D1124F0125BD600025AC4601270E
:10D140000D68C969D961002909D00B685B190B60AA
:10D1500005E00174C06900E000210028F9D1964281
:10D16000C6D10649624610398A604860CF70704562
:10D1700001D00120F0BD0020F0BD0000AC50002027
:10D1800000100140F8B52C4E044670680025009050
:10D1900041E0002C02D02046E46920E02648182314
:10D1A0001030017842684B43491CC9B2D218017053
:10D1B0008378994200D105701178506801292CD1EB
:10D1C000017C002929D191684160D1688160116991
:10D1D000C16051698161F178002900D045604368E0
:10D1E000B268164F991A0902090AB94202D2826836
:10D1F000891806E0D11A09028268090A8A4202D90E
:10D20000511A016000E005604560012185600174EC
:10D21000C56101F019FD002CBBD107481030017821
:10D2200040788142BAD171680098814201D00120D2
:10D23000F8BD0020F8BD00009C500020FFFF7F00DB
:10D2400008B5002000F0E6FE002801D0FEF7A4FE9D
:10D2500024A1032000F0C4FDFFF79CFA00232A4A12
:10D2600003211846FEF7BAFE002801D0FEF794FE0F
:10D27000264A01212648FEF72FFE002801D0FEF79E
:10D280008BFEFFF721FA2348FFF778F8002801D03A
:10D29000FEF782FE1E4C20480025143C1A4E0090DA
:10D2A000A5704836A078694600018019FFF734F967
:10D2B000002801D0FEF770FEA078401CC0B2A0701C
:10D2C0000828EFD3A57001F0ADFA0020FFF748FA67
:10D2D00000F0D4FC0028FBD148DF0028F8D0FEF78E
:10D2E0005BFEF5E71B5B306D4150503A494E464FAF
:10D2F0003A4D756C74696C696E6B204578616D7020
:10D300006C650D0A00000000385100206606000020
:10D3100054500020D5CC01003DD00100C208430785
:10D320005B0F0120895C9840084070470121890704
:10D3300040180068002800D00120704700280FD056
:10D340000849094A096800BF00BF00BF00BF00BF0D
:10D3500000BF00BF00BF914200D000BF401EF2D10D
:10D3600070470000EC5000200024F40070B50E4C13
:10D3700000252078002801D0852513E00021A16038
:10D3800061602161E160094800680126304002D1F6
:10D39000032100F02FF801F007FC002801D1044818
:10D3A00086612670284670BD1869002000E100E003
:10D3B0000005004038B50020694608706846FEF751
:10D3C0009FFE084C2078002801D1FFF7CFFFE068CE
:10D3D000401CE0600120A07068460078FEF7AEFEB9
:10D3E00038BD00001869002010B5002801D1FFF7F2
:10D3F00009FC10BD8207D30EFF229A408907090E4F
:10D4000010B5994000280BDA03071B0F083B9C0856
:10D410000C4BA400E318DC6994430C43DC6107E087
:10D420008408094BA400E418236893430B4323604A
:10D43000C106C90E012088400449086004490860FB
:10D4400010BD000000ED00E000E400E080E200E03C
:10D4500000E100E010B5044601F068F9002804D0AE
:10D460000021204600F04AFA10BD204601F06AF97A
:10D470000028F9D02046FFF79FFB0649820051188B
:10D480000A69520852000A61012181400248816004
:10D4900010BD00000065004000630040F3B581B09E
:10D4A000054601F043F91F4F0028284617D0FFF723
:10D4B00083FBC0192030007F8009032802D0012897
:10D4C0000BD005E018480069E840C007C00F04D041
:10D4D0000321284600F012FAFEBD0221F9E701F00F
:10D4E00031F90028F8D02846FFF766FB0446800093
:10D4F000C11D0E4AF9318018026989B201263243F2
:10D500000261084600F02CFA02980028E4D0284670
:10D51000FFF752FB800038580028DDD00448A640B1
:10D520004660FEBD2C6900200005005000650040EB
:10D5300000630040FEB5044625480E460019202130
:10D5400041560027C8171346401C01D008273CE06D
:10D55000F27819462046FFF70BFB0546401C33D0F6
:10D56000B07800280BD005200007A100091807207B
:10D5700000020918086802229043086007E00021B1
:10D580007378204600910A46019100F073F9F07813
:10D59000002810D00F48AA001018317802690E4BED
:10D5A0001A400261E206D20C8907890B0A4301691D
:10D5B0000A43026109E00648327840192030017FB1
:10D5C00092011143017700E004273846FEBD0000B8
:10D5D0002C69002000650040FFE0FCFF0349096959
:10D5E000C140C807C00F00D001207047000500509F
:10D5F00070B5144D2879002801D0082070BD11495C
:10D6000000204039421E0B182033401CC0B21A7053
:10D610002028F8D300242046FFF79CFA641CE4B2CB
:10D62000082CF8D303210620FFF7E4FEFF207D300D
:10D6300000F096F901200449C007486001202871D4
:10D64000002070BD6C690020006300400248007932
:10D65000002800D0012070476C690020F8B506460C
:10D660000F4600791C2148431A4915464418E07EAC
:10D67000002801D00820F8BD39463046FEF774FD79
:10D6800065603869206028460025002813D0FF22F5
:10D690003068397F1D328550FF2230684532855011
:10D6A000032330681B020C4AC01842603068000B2C
:10D6B00040B2FFF79FFE0522306804211202801855
:10D6C0000160E5752576A5750121E1762846A576E8
:10D6D000F8BD0000746900208000020070B50546A6
:10D6E0000C4600791C21484308494318284600F09D
:10D6F00055F8002801D0112070BD9A7500209C605B
:10D700009882284600F004F870BD0000746900207B
:10D71000F8B5044600791C2148431F4900264518E6
:10D72000FF2720681D37C6512068012181602946E6
:10D73000206801F053FB6968002913D027E0FF2718
:10D740000137FF211D31206800F07AFC002802D14A
:10D75000A88AB842F5D1A88AB84203D029462068E1
:10D7600001F03CFBA88AA97D8842E8D3A98AC81F9A
:10D77000F9380ED0FF271D373946206800F060FCCD
:10D780000028F9D020680121C1600020A87530462A
:10D79000F8BD0F26F9E700007469002000791C210C
:10D7A000484303494018807D002800D0012070477D
:10D7B00074690020F8B501791C225143204A0023E6
:10D7C0008D1805220168120289180B60696800290A
:10D7D0000CD00324016824021A4B09198B600168DC
:10D7E000C903CB0E01219940174B1960052201682E
:10D7F00012028A18D3685669976814690021C943D0
:10D800005161D160006805221202801881600161B7
:10D81000581C02D0184600F055F8701C02D0304653
:10D8200000F050F8601C02D0204600F04BF8781C45
:10D8300002D0384600F046F80020E8766860F8BD6F
:10D84000746900208402020080E100E070B552009B
:10D850000A439900049D0A432902059E0A433104A4
:10D8600005240A43240780000721001909024018F3
:10D87000026070BD70B552000A439900049D0A43CE
:10D880002902059E0A43310405240A432407800027
:10D890000721001909024018026070BD70B55200DE
:10D8A0000A439900049D0A432902059E0A43310454
:10D8B00005240A43240780000721001909024018A3
:10D8C000026070BD1CB5002100910B460122019140
:10D8D000FFF7E4FF1CBD1CB500220B460092114669
:10D8E0000192FFF7DBFF1CBD1CB5002100910B4628
:10D8F000012201911146FFF7D1FF1CBD052212073D
:10D9000080008218072000021018026803231B04FD
:10D910009A430260026809040A43026070470000EB
:10D92000012282400348002901D082607047C26012
:10D93000704700000005005038B5084B05241B68EF
:10D94000009324026B46411805E085005D592D19AE
:10D950002D69401C20C28142F7D838BDE4EF010098
:10D96000024940180021016070470000006000403B
:10D97000034940180068012800D0002070470000CB
:10D98000006000400048704709DA010030B51A4CC9
:10D990000546207889B0002805D06078854202D1FC
:10D9A000002009B030BDFDF799FE202213496846DA
:10D9B000FDF7C6FB002069460875092000900B2082
:10D9C0000190082003900A2002900D4806900A4812
:10D9D000001DFFF7EFFE002D01D0002200E0094AF4
:10D9E00005486946001DFFF739FE0028D9D10120FE
:10D9F00020706570D4E70000C8500020F8EF0100E7
:10DA000000E0D70115EE0100F0B5C5B00C460021CD
:10DA100000914D984B991E46081817460390002C0C
:10DA200001D00A2000E00020019000F0E9FF00286A
:10DA30007ED104AD002E17D100986A4629182046E1
:10DA400001F086F900287ED03846FDF79DFBC228FC
:10DA500000D9C22004460098224628183946FDF70E
:10DA60006FFB0098001900900099019804AA08180B
:10DA7000541831301518002003E020212170401C7B
:10DA8000641C01998842F8D300270398864207D383
:10DA9000202020706070A0702870E41C6D1C2CE0A9
:10DAA0004B98864202D24A98805D02E0311A4C9827
:10DAB000405C22468446012102908B006046D8409B
:10DAC0000007000F092801D9373000E0303001236A
:10DAD0005B1AD054491EF0D220209070D41CFDF760
:10DAE0002BFB01680298085C8006C00E01D00298EA
:10DAF00000E02E2028706D1C761C7F1C102FC4D3D4
:10DB00000D2028700A20687020202070009901984C
:10DB100004220818433004A9009008180B49FDF7A7
:10DB20000FFB009904A8091D009100F071FF00E0AF
:10DB300009E0002807D000F063FF002803D100901F
:10DB40000398864290D3304645B0F0BDF0EF010017
:10DB5000FFB5C7B00025509F1C46059500F050FF4B
:10DB600000287DD1059806AE311805AA489801F025
:10DB7000EFF800283ED03846FF2701370300FDF7B5
:10DB8000FDFE0705131B3B47535F25004998FDF732
:10DB9000FBFA059905464018FF2817D870182A4641
:10DBA0004999FDF7CDFA11E005982368391A301824
:10DBB000499AFDF7C9FE08E060680090059823685F
:10DBC000391A3018499AFDF7BFFE0546294605A8BF
:10DBD000FEF730FF05990C1D002841D0BC423FD80C
:10DBE000701804221F49FDF7ABFA214606A80594D8
:10DBF00000F00EFF4BB0F0BDA1686068009001918D
:10DC000005982368391A3018499AFDF79DFEDCE71C
:10DC1000201D07C86B4607C305982368391A3018BA
:10DC2000499AFDF791FED0E7201D0FC86D460FC53C
:10DC300005982368391A3018499AFDF785FEC4E71C
:10DC4000204608300FC801AD0FC5606800900598E8
:10DC50002368391A3018499AFDF776FEB5E7FFE7D1
:10DC60000020C7E7F0EF01000048704751DB0100DA
:10DC700010B50120FFF78AFE10BD0000F0B589B095
:10DC8000FEF728FF002802D0002009B0F0BD494867
:10DC90008668446804E02A04A90D920D89180C19BD
:10DCA00021463140890009180594CD68641CA907F4
:10DCB000F1D0214631403F48890009180C31641CDD
:10DCC000680700D50021AA073B48920F8446022A24
:10DCD00007D0AB0AA805000F864601AA00200793CB
:10DCE00053E02046304082003248641C1018C0685F
:10DCF000049028040694800D86463440301B83002F
:10DD0000AF0D1B1D9F4221D92A480C30002B06D095
:10DD1000284AA400A218DCB2FB1A0C3203E0024627
:10DD20000020FCB20346DBB2019403930092029000
:10DD30006246A8065469400F7346049AA047B84249
:10DD40000ED1FF1C0698B9080C182BE00020194AC8
:10DD5000A3009A180C320290019700920390E7E713
:10DD6000164980050D40000C0543059830408100A0
:10DD700010480818C56017E0274637400D4BBF0014
:10DD8000FF18FF68401C80C2641C73467045F3D3C3
:10DD9000A806009362461569400F01AB079AA84791
:10DDA000002801D003484460FEF794FE012148405A
:10DDB0006BE70000B06A0020B06E00203F00FFFF5C
:10DDC00010B5054BFF249C6000241C605C60034B75
:10DDD000DA6000F019F910BDB06A0020B06E0020C2
:10DDE000F8B5164C0E46074600206946A568FEF7B2
:10DDF0002BFE002820D012483C21808888437907D8
:10DE0000890E08430F21890188438105890DB002DD
:10DE10000143009802462A4092001219401CD1602A
:10DE200000900848C068804700990A462A4092003E
:10DE30001219491CD0600091F8BD0000B06A0020A2
:10DE400018F00100B06E0020F7B51A4C82B00E46F3
:10DE5000074601206946A568FEF7F6FD002827D091
:10DE600015483C21008988437907890E08430F2112
:10DE700089018843402108438105890DB00201438F
:10DE8000009802462A4092001219401CD16000906E
:10DE90000A48C068804700990A462A409200121931
:10DEA000D060491C00912940890009190498C86074
:10DEB00005B0F0BDB06A002018F00100B06E00207F
:10DEC000FFB51E4C81B00F46164602206946A56874
:10DED000FEF7BAFD00282ED019483C2180898843DE
:10DEE00001994907890E08430F2189018843802140
:10DEF00008438105890DB8020143009802462A4073
:10DF000092001219401CD16000900E48C0688047F2
:10DF100000990A462A4092001219491CD06008460E
:10DF2000284080000019C660491C009129408900E2
:10DF300009190498C86005B0F0BD0000B06A00205F
:10DF400018F00100B06E0020FFB52C4C81B00F46D8
:10DF50001E4606206946A568FEF776FD00284BD0D0
:10DF600027483C21808B884301994907890E084343
:10DF70000F2189018843FF21813108438105890DE3
:10DF8000B8020143009802462A4092001219401C30
:10DF9000D16000901B48C068804700990A462A401B
:10DFA00092001219D060491C0A462A4092001219A8
:10DFB0000398491CD0600846491C28400A46800046
:10DFC00000192A40C660920012190A98D060491CB4
:10DFD0000A462A40920012190B98D060491C0A4642
:10DFE0002A40920012190C98D060491C00912940D7
:10DFF000890009190D98C86005B0F0BDB06A00200D
:10E0000018F00100B06E0020014A516110617047A4
:10E01000B06E002070B5050005D00020FFF7B6FCFB
:10E02000040002D00AE0072070BDFFF7ABFC0646F3
:10E03000FFF71AFE2A463146FFF7C2FE204670BDA2
:10E040004058002800D00120704703221202801897
:10E050004068084000D0012070470000F0B589B04A
:10E06000051D0830009028460D300590287B694634
:10E07000C008088206AA04A90920FDF7EEFE0026C2
:10E08000002806D006AA04A90820FDF7E6FE00280D
:10E0900057D13048FDF778F8002852D06846028BF7
:10E0A0002C480799FDF777F800284AD12A4F2B4CC6
:10E0B0000AE01C207043C01906220099FDF76BF896
:10E0C000002840D0761C36B2E0688642F1DBE0687A
:10E0D00086421DD1022838D01C214843C01906228F
:10E0E0000099FDF72DF8E0681C214843C019867996
:10E0F00043790279C17803966E460EC683784278DA
:10E1000017A10320FFF720FFE068A080401CE0601B
:10E110000420205E002814DB1C214143C919CB7E5A
:10E12000EA7A2270C918CA7180B2FEF75FF82061DE
:10E13000FDF702F903460422A25E16A10320FFF7B1
:10E14000BFFE09B0F0BDA680C1E719A10120FFF70D
:10E1500047FEDDE784EF010000650020405000200D
:10E160001B5B306D4150503A494E464F3A4E6577F1
:10E170002041646472657373202530327825303213
:10E180007825303278253032782530327825303293
:10E19000780D0A001B5B306D4150503A494E464F96
:10E1A0003A525353495B25645D3A2025640D0A00B9
:10E1B0001B5B306D4150503A4552524F523A4265C6
:10E1C00061636F6E732069732066756C6C0D0A0055
:10E1D000F0B50646051D3188083085B01D297DD073
:10E1E00040DC594C102947D0112978D01B2937D051
:10E1F0001C2935D1877943790279C17803976F4615
:10E200000EC78378427851A10320FFF79DFE28882E
:10E2100020810822B256627058A10320FFF714FE35
:10E220000820205E1C2105465A4A48438618F17E84
:10E2300063788A18491CF176C01D1354F07E1421AE
:10E24000FCF764FFF176A8B2FDF7D0FFFDF75BF8AD
:10E2500003B263810822A25E4FA10320FFF730FEC4
:10E2600005B0F0BD1F2962D03A2967D05529F7D1F2
:10E27000B088132176DF64E02A884E490320FFF737
:10E28000E3FD2888082802D30020FDF785FE2988B1
:10E29000494A080180180022FEF72EF9002801D013
:10E2A000FDF77AFE29881320434A40014843803213
:10E2B0008018FEF79DF8112803D0002801D0FDF743
:10E2C0006BFE0120FEF74CFAFDF7ACFF08280DD0DD
:10E2D0000020FEF745FA00F0A5FA01E023E009E08E
:10E2E000B0880122E080114688DFB9E70020FEF700
:10E2F0002DFAF2E72B792A8830490320FFF7E0FD59
:10E30000FDF7C2FD002801D0FDF746FE00F08AFAB5
:10E310000020FEF725FAFDF785FF0028A0D1012097
:10E32000FEF714FA9CE73046FFF798FE98E7288836
:10E33000291D75DF05E0FDF72FFE91E7B088132159
:10E3400076DF0028F7D18BE7405000201B5B306D53
:10E350004150503A494E464F3A4164647265737376
:10E360002025303278253032782530327825303209
:10E370007825303278253032780D0A001B5B306DFD
:10E380004150503A494E464F3A525353493A20254C
:10E39000640D0A00006500201B5B306D4150503A4F
:10E3A000494E464F3A525353495B25645D3A202506
:10E3B000640D0A0058F101008051002014F10100A1
:10E3C000F3B589B00C460A880921099889014718D4
:10E3D000F88B82425ED1B87E642148430999461881
:10E3E0006088002843D12046083000903579207A93
:10E3F0002818052800D905203071002007901AE060
:10E4000007980A21484300990A22411812206843BC
:10E41000801906900A30891CFCF792FE06980021AC
:10E4200081820698C18206980183069841830798E5
:10E43000401C6D1C07903079A842E1D8122045435A
:10E44000A9190A88B97E64230998594308180089D4
:10E4500082420CD23079052809D078762188099833
:10E46000FEF7B2FB010015D00020F87609E0002588
:10E470007D76228802A90998FEF740FC01000BD0A6
:10E48000FD7622880998FEF7F3FC0D480321017000
:10E49000218841800BB0F0BD6846007A0028F9D091
:10E4A0002388328807490320FFF70AFD22880121CB
:10E4B0000998FEF795FC2188099800F0F9F8E9E73A
:10E4C000F0650020E0F10100F3B581B00C460A8848
:10E4D0000921019889014518E88B82425CD1A87E08
:10E4E00064214843019922464618687E1221484318
:10E4F0008019618808320A3000292CD02EE00623CA
:10E500004B439B189C469B8829273F02DB1B0AD064
:10E51000012B0CD0022B02D0082B0FD10BE063464D
:10E520005B8843810AE063465B88838106E063463B
:10E530005B88C38102E063465B8803824389002BCA
:10E5400008D08389002B05D0C389002B02D0038A11
:10E55000002B03D1491C13888B42D0D80027684672
:10E560000770687E3179401C884203D101206946DA
:10E57000087016E06876228869460198FEF7BEFBAF
:10E5800001000AD0EF7622880198FEF771FC0D4851
:10E590000321017021884180FEBD68460078002873
:10E5A000FAD02388328808490320FFF789FC2288A3
:10E5B00001210198FEF714FC2188019800F078F8F9
:10E5C000FEBD0000F0650020E0F10100F8B507464F
:10E5D000092080013E180C46B07E64214843C519CD
:10E5E0002088F18B884210D160882A8800280DD0BD
:10E5F00015A10320FFF728FC228800213846FEF7EA
:10E60000EFFB2188384600F053F8F8BD1BA103202A
:10E61000FFF71AFC61892980A1896980E189E98075
:10E62000208A288121883846FEF7CEFA0100ECD0F6
:10E630000020F07622883846FEF71AFC1B4803219A
:10E64000017021884180F8BD1B5B306D424C455FF5
:10E6500044425F444953433A494E464F3A536572E8
:10E660007669636520555549442030782578204ED9
:10E670006F7420666F756E640D0A00001B5B306D51
:10E68000424C455F44425F444953433A494E464FEA
:10E690003A466F756E6420736572766963652055BE
:10E6A00055494420307825780D0A0000F065002097
:10E6B000F8B50746092080013C18207F0D46401C14
:10E6C000C0B217492077CA680021904226D26176ED
:10E6D000A07E6422401CC0B24243D619A076114AE3
:10E6E00080008018028832804088708031712B460B
:10E6F0000D490320FFF7E4FB32460121284690DF55
:10E7000001000AD00020E0762A463846FEF7B0FB2A
:10E7100004480321183001704580F8BDE176F7E721
:10E7200070500020D86500204CF201000449081800
:10E7300020214156042901DB012070470020704749
:10E740002C6900200449081820214156042901D2CF
:10E7500001207047002070472C69002001225207D9
:10E760005110886B496B414388187047F0B50C4BCA
:10E7700000210A4ADC680CE08D00AE18B678877874
:10E78000BE4205D1555B0688B54201D15868F0BD3F
:10E79000491CA142F0D30020F0BD0000D865002044
:10E7A0007050002070B501240B49600408600B49CB
:10E7B00040108860094940398860094D6C602F20FD
:10E7C000FEF7BCFDAC60074D00242F20AC60FEF7C7
:10E7D000B5FDAC7070BD000080E100E04013014069
:10E7E000001001409C50002030B5FF220523CD7D54
:10E7F000002409321B02C318002D8450986905D0EB
:10E800004B7ECA68D054487E401C487630BD1FB548
:10E8100001246B461C701972019206C86846904725
:10E820001FBD000010B58BDF094A0AA10320FFF7C6
:10E830000BFB07480C308ADF002801D0FDF7ACFB4A
:10E840000120FEF729F8002801D0FDF7A5FB10BD37
:10E8500084EF01001B5B306D4150503A494E464FEA
:10E860003A5374617274207363616E6E696E6720CF
:10E87000666F7220646576696365206E616D6520E0
:10E8800025732E0D0A00000010B50446FDF792F81E
:10E8900000280CD0A007C00E002C0ADA2107090FAF
:10E8A00008398908144A89008918C96906E013489B
:10E8B00010BDA108124A890089180968C1400806DC
:10E8C000800F042811D200280FD002280DD00D4946
:10E8D0004B68E206D20E01209040002B08D062095E
:10E8E00092008B5803438B5004E00448401C10BD39
:10E8F00005490860002010BD00ED00E00120000087
:10E9000000E400E0C050002000E100E070B5049D8C
:10E91000002819D0002917D0002A15D0002466003D
:10E92000865B9E4211D100200123A3400AE0002D06
:10E9300003D00C1826781E4302E00C1826789E435C
:10E940002670401C9042F2D370BD641C082CE6D3A4
:10E9500070BD000070B5054600242146284600F031
:10E960000DF8002801D0204670BD641CA4B2082C0C
:10E97000F3D3014870BD0000FFFF000001228A4070
:10E98000024201D00120704700207047F7B50020F7
:10E9900086B017460D460090002913D000246E461D
:10E9A000A1B23846FFF7EAFF002808D000996000BE
:10E9B0004900285A891988800098401C0090641CDE
:10E9C000082CEDD3142269460698FCF7B9FB09B070
:10E9D000F0BD70B5002506462C46A1B23046FFF7C3
:10E9E000CDFF002800D06D1C641C082CF5D32846F0
:10E9F00070BD08B5009313460122FFF787FF08BDDD
:10EA000010B50248FEF7CAFE10BD0000CC50002031
:10EA1000F3B581B00C460A4601260F480199FCF770
:10EA20008FFBE2B20C490D48FEF758FE002800D0DB
:10EA3000002600250A270198224641190020FCF7EC
:10EA400057FE2D18241A002801D17F1E01D0002C5A
:10EA5000F1D13046FEBD0000B0690020CC5000204E
:10EA6000002803D00249C860002070470E2070477C
:10EA7000D85000201CB50F4901910091694660DF14
:10EA80000446009A019882420AD00B490220FFF7FF
:10EA9000DBF9FFF763FE0099421A08A1022004E0A7
:10EAA000002C04D0224613A10120FFF7CDF9204607
:10EAB0001CBD000040500020BCF201001B5B306D0B
:10EAC0005344483A5741524E494E473A52414D20DD
:10EAD00073697A652073686F756C64206265206164
:10EAE000646A757374656420746F203078257820AB
:10EAF0000D0A00001B5B306D5344483A4552524F9B
:10EB0000523A73645F626C655F656E61626C653A10
:10EB1000206572726F7220307825780D0A0000002F
:10EB200070B50E460546144614211046FCF721FB2D
:10EB30000120002120802161217326726572002D41
:10EB400000D0A072002070BD10B5FDF7FFF910BD18
:10EB5000F8B5002903D08C070025002C01D0072030
:10EB6000F8BD0E4E0E4FB16072807360396801249B
:10EB7000214003D00A49254680310C60094910DF45
:10EB8000002803D0002DEBD03C60F8BD3470FEF7B8
:10EB900011FC1620FFF778FEF8BD0000D8500020C9
:10EBA00000E100E049EB01000148007870470000F7
:10EBB000D8500020FEB51F4C0025A7686068029061
:10EBC0006846FEF76DF90190FEF786FA0646019851
:10EBD000002822D000230098616817E00E680A46DA
:10EBE000864202D9301A086012E0801BF318002612
:10EBF0001660D668D169B446002E07D0FE183602DA
:10EC0000360A566066469660D56115460029E5D1FC
:10EC100028466160FEF7B6FA06E02846FEF7B2FA2B
:10EC2000002801D1002E02D00298FDF7FFFF00203E
:10EC3000E070FEBD9C5000200120024900050860E4
:10EC40007047000000E200E010B50E4B5968002943
:10EC500006D002680C68A24204D8A21A0A60C161F8
:10EC6000586010BD0B4604E00B46C969121B002911
:10EC700004D00C689442F7D3A41A0C600260C161FE
:10EC8000D86110BD9C5000207CB50D46064600247E
:10EC900069460C706846FDF733FA01A800F056F992
:10ECA00000280DD005704660684608490079487014
:10ECB00068460078FDF742FAFFF7BEFF20467CBDAC
:10ECC000684604240078FDF739FAF7E7AC500020D5
:10ECD000F8B51D4D6C68002C34D01C4800274068E6
:10ECE000A968401A0602360A2068B04218D8361AB7
:10ECF000C7192246107CE46900280FD00020107448
:10ED0000EB68002B07D0916950699847002805D01F
:10ED1000FDF742F902E0516990698847002CE3D180
:10ED200029786878814206D1401CC0B268700228F8
:10ED300001D10020687004490006800D18310F5081
:10ED4000FFF77AFFF8BD00009C500020001501403D
:10ED500070B5064601200D461446002E13D004223D
:10ED60000A492846FCF7ECF92068FF21001D2060C5
:10ED7000281D07A201313368FCF7E6FD0146204655
:10ED8000FDF758FE70BD0021116070BDF0EF01006D
:10ED90005B253038645D000010B50E4C216860685A
:10EDA000884210D014210C4A484381188B78002BDC
:10EDB0000AD0105A083198DF002804D12079401C6D
:10EDC0004007400F606010BD105A8988002296DF0E
:10EDD000F2E700008050002078680020FF221D32FA
:10EDE000002383508B8A8A68D25C8B8A5B1C8B825F
:10EDF000052109024018C26170471FB500226B4609
:10EE00001A70197281680191827506C86846904728
:10EE10001FBD00000078012801D1014988707047AA
:10EE2000C8500020F0B50C46012185B005464902C6
:10EE3000FFF70BF9032109026F180026002826D0DE
:10EE4000FF2125312846FFF7FBF800281FD0FF20BF
:10EE500025302E5081208000B860A07E002801D18E
:10EE6000012068600221684601700920C00129184C
:10EE7000086808600390E17D68460172E0680190CF
:10EE8000E675267606CC6846083C90472DE00421BE
:10EE90002846FFF7DAF8002827D0FF210931284655
:10EEA000FFF7CEF8002820D021462846FFF79CFC2B
:10EEB000E07D617E884218D1207E002807D0617EE7
:10EEC000E268E0752069E060267666760AE0A07E5A
:10EED000002801D10120686081208000B860E675BB
:10EEE000617EE2682046FFF792FCFF271D37394616
:10EEF0002846FFF7A5F800280FD0A08AA17D8842F8
:10EF000004D221462846FFF769FF06E0EE51A17DB5
:10EF1000002902D02046FFF770FFFF27453739460A
:10EF20002846FFF78DF800280ED0EE51A07E00286D
:10EF300001D001202860E07D002805D0E675617EC3
:10EF4000E2682046FFF763FC05B0F0BD10B5094943
:10EF50004B788C785A1CD2B2944200D100220C78A3
:10EF6000944201D1002010BD0270486818214B4323
:10EF7000C01810BDAC5000200100000706001800AA
:10EF8000000090014D795F426561636F6E00000083
:10EF90000000000000000000A00050000000000081
:10EFA0001516171811121314386500205865002023
:10EFB000846500201100030005C801001200030051
:10EFC00005C801001300030005C801001400030078
:10EFD00005C8010023D1BCEA5F782315DEEF1212C9
:10EFE00000000000000000509069002003000000B5
:10EFF0001B5B306D00000000FFFFFFFFFFFFFFFF06
:10F00000FFFFFFFFFFFFFFFF000000000000000008
:10F0100000E0D7010300000029000000010000000B
:10F0200001000000010000000100000001000000DC
:10F03000010000000100000002000000004040400C
:10F0400040404040404041414141414040404040BB
:10F050004040404040404040404040404005020267
:10F060000202020202020202020202020220202026
:10F070002020202020202002020202020202909082
:10F080009090909010101010101010101010101080
:10F0900010101010101010100202020202028888D4
:10F0A00088888888080808080808080808080808E0
:10F0B00008080808080808080202020240000000C8
:10F0C0003DF001001B5B306D4150503A494E464FB8
:10F0D0003A63616C6C20746F20626C655F6C627364
:10F0E0005F6F6E5F64625F646973635F65767420EF
:10F0F000666F7220696E7374616E6365202564208B
:10F10000616E64206C696E6B2030782578210D0A61
:10F11000000000001B5B306D4150503A494E464F95
:10F120003A4C42532063656E7472616C206C696E58
:10F130006B203078257820646973636F6E6E656329
:10F140007465642028726561736F6E3A203078258B
:10F1500078290D0A000000001B5B306D4150503AC9
:10F16000494E464F3A436F6E6E656374696F6E2009
:10F17000307825782065737461626C6973686564A2
:10F180002C207374617274696E6720444220646934
:10F1900073636F766572792E0D0A00001B5B306D0C
:10F1A0004150503A494E464F3A4C454420427574BE
:10F1B000746F6E207365727669636520646973632A
:10F1C0006F7665726564206F6E20636F6E6E5F6828
:10F1D000616E646C6520307825780D0A00000000AF
:10F1E0001B5B306D424C455F44425F444953433A98
:10F1F000494E464F3A446973636F76657279206F62
:10F200006620736572766963652077697468205536
:10F21000554944203078257820636F6D706C657493
:10F220006564207769746820737563636573732000
:10F23000666F7220436F6E6E656374696F6E2068CF
:10F24000616E646C652025640D0A00001B5B306DE7
:10F25000424C455F44425F444953433A494E464F0E
:10F260003A5374617274696E6720646973636F7670
:10F27000657279206F6620736572766963652077A1
:10F280006974682055554944203078257820666F88
:10F290007220436F6E6E656374696F6E2068616E75
:10F2A000646C652025640D0A000000001B5B306D56
:10F2B0004F766572666C6F770D0A00001B5B306DD0
:10F2C0005344483A5741524E494E473A73645F623D
:10F2D0006C655F656E61626C653A2052414D2073CA
:10F2E000746172742073686F756C6420626520614C
:10F2F000646A757374656420746F20307825780DA6
:10F300000A00000024F3010040500020B00000007B
:10F3100096B90100D4F30100F050002060280000ED
:10F32000A6B9010000000000FFFFFFFF0000000081
:10F33000000000000000000011000300E9CA010005
:10F3400000000000000000000000000000000000BD
:10F3500000000000000000000000000000000000AD
:10F36000000000000000000000000000000000009D
:10F37000000000000000000000000000000000008D
:10F38000000000000000000000000000000000007D
:10F39000000000000000000000000000000000006D
:10F3A000000000000000000000000000000000005D
:10F3B0000020004000000000ACF20100000000004E
:10F3C000000000000000000000000000000000003D
:04F3D0000024F40021
:040000050001B0C185
:00000001FF
